:100000000068002001340100B7280200ED33010030
:10001000ED330100ED330100ED330100000000007D
:100020000000000000000000000000001136010088
:10003000ED33010000000000A5350100ED330100A3
:1000400065390100776B02006539010065390100EF
:100050006539010065390100653901006539010024
:10006000476B02006539010065390100616B0200D0
:100070006539010065390100653901006539010004
:1000800065390100653901006539010065390100F4
:1000900065390100653901006539010065390100E4
:1000A00065390100653901006539010065390100D4
:1000B00065390100653901006539010065390100C4
:1000C00065390100653901006539010065390100B4
:0C00D00065390100653901006539010047
:0400DC00FFFFFFFF24
:1000E0009FED197B70B51A4A1A4D002342F2200089
:1000F0002021A972288185F82130136082F82830E8
:1001000082ED027BAB7385ED067B1C4685F82210E1
:1001100085F8203005F1280202F814300134202C33
:10012000FAD101260C48EE730BF0F0FE0B4B187061
:100130000B4B1C700BF05AFF286008F059FF85F834
:10014000236070BDAFF30080FFFFFFFFFFFFFFFFE5
:10015000F015002070160020919A00002016002053
:10016000E815002081F0004102E000BF83F0004369
:1001700030B54FEA41044FEA430594EA050F08BF42
:1001800090EA020F1FBF54EA000C55EA020C7FEA06
:10019000645C7FEA655C00F0E2804FEA5454D4EB83
:1001A0005555B8BF6D420CDD2C4480EA020281EA4D
:1001B000030382EA000083EA010180EA020281EA85
:1001C0000303362D88BF30BD11F0004F4FEA0131D7
:1001D0004FF4801C4CEA113102D0404261EB4101E6
:1001E00013F0004F4FEA03334CEA133302D052426C
:1001F00063EB430394EA050F00F0A780A4F1010428
:10020000D5F1200E0DDB02FA0EFC22FA05F2801861
:1002100041F1000103FA0EF2801843FA05F3594147
:100220000EE0A5F120050EF1200E012A03FA0EFCC6
:1002300028BF4CF0020C43FA05F3C01851EBE371F0
:1002400001F0004507D54FF0000EDCF1000C7EEB0D
:1002500000006EEB0101B1F5801F1BD3B1F5001F4B
:100260000CD349085FEA30004FEA3C0C04F101046A
:100270004FEA445212F5800F80F09A80BCF1004F93
:1002800008BF5FEA500C50F1000041EB045141EA15
:10029000050130BD5FEA4C0C404141EB0101013CDE
:1002A00028BFB1F5801FE9D291F0000F04BF0146CD
:1002B0000020B1FA81F308BF2033A3F10B03B3F19F
:1002C00020020CDA0C3208DD02F1140CC2F10C022F
:1002D00001FA0CF021FA02F10CE002F11402D8BF8D
:1002E000C2F1200C01FA02F120FA0CFCDCBF41EA59
:1002F0000C019040E41AA2BF01EB0451294330BD28
:100300006FEA04041F3C1CDA0C340EDC04F1140404
:10031000C4F1200220FA04F001FA02F340EA0300DB
:1003200021FA04F345EA030130BDC4F10C04C4F121
:10033000200220FA02F001FA04F340EA0300294601
:1003400030BD21FA04F0294630BD94F0000F83F44B
:10035000801306BF81F480110134013D4EE77FEA2E
:10036000645C18BF7FEA655C29D094EA050F08BF7A
:1003700090EA020F05D054EA000C04BF194610465B
:1003800030BD91EA030F1EBF0021002030BD5FEA9F
:10039000545C05D14000494128BF41F0004130BDC7
:1003A00014F580043CBF01F5801130BD01F000451B
:1003B00045F0FE4141F470014FF0000030BD7FEA8E
:1003C000645C1ABF194610467FEA655C1CBF0B4689
:1003D000024650EA013406BF52EA033591EA030FA0
:1003E00041F4002130BD00BF90F0000F04BF002198
:1003F000704730B54FF4806404F132044FF00005CB
:100400004FF0000150E700BF90F0000F04BF002143
:10041000704730B54FF4806404F1320410F00045A9
:1004200048BF40424FF000013EE700BF42004FEAA4
:10043000E2014FEA31014FEA02701FBF12F07F4321
:1004400093F07F4F81F06051704732F07F4208BFD8
:10045000704793F07F4F04BF41F40021704730B5DF
:100460004FF4607401F0004521F000411CE700BF2B
:1004700050EA010208BF704730B54FF000050AE0AE
:1004800050EA010208BF704730B511F0004502D5AF
:10049000404261EB41014FF4806404F132045FEAB1
:1004A000915C3FF4D8AE4FF003025FEADC0C18BF5A
:1004B00003325FEADC0C18BF033202EBDC02C2F14C
:1004C000200300FA03FC20FA02F001FA03FE40EADE
:1004D0000E0021FA02F11444BDE600BF70B54FF0E2
:1004E000FF0C4CF4E06C1CEA11541DBF1CEA1355C0
:1004F00094EA0C0F95EA0C0F00F0DEF82C4481EA28
:10050000030621EA4C5123EA4C5350EA013518BF47
:1005100052EA033541F4801143F4801338D0A0FB34
:1005200002CE4FF00005E1FB02E506F00042E0FBE1
:1005300003E54FF00006E1FB03569CF0000F18BFE7
:100540004EF0010EA4F1FF04B6F5007F64F540748F
:1005500004D25FEA4E0E6D4146EB060642EAC62122
:1005600041EA55514FEAC52040EA5E504FEACE2E8F
:10057000B4F1FD0C88BFBCF5E06F1ED8BEF1004F92
:1005800008BF5FEA500E50F1000041EB045170BD0E
:1005900006F0004646EA010140EA020081EA030152
:1005A000B4EB5C04C2BFD4EB0C0541EA045170BD4E
:1005B00041F480114FF0000E013C00F3AB8014F1C8
:1005C000360FDEBF002001F0004170BDC4F1000411
:1005D000203C35DA0C341BDC04F11404C4F1200592
:1005E00000FA05F320FA04F001FA05F240EA0200ED
:1005F00001F0004221F0004110EBD37021FA04F623
:1006000042EB06015EEA430E08BF20EAD37070BDDC
:10061000C4F10C04C4F1200500FA04F320FA05F03B
:1006200001FA04F240EA020001F0004110EBD3703D
:1006300041F100015EEA430E08BF20EAD37070BDAD
:10064000C4F1200500FA05F24EEA020E20FA04F386
:1006500001FA05F243EA020321FA04F001F0004135
:1006600021FA04F220EA020000EBD3705EEA430EA6
:1006700008BF20EAD37070BD94F0000F0FD101F0D5
:100680000046400041EB010111F4801F08BF013C0E
:10069000F7D041EA060195F0000F18BF704703F04C
:1006A0000046520043EB030313F4801F08BF013DD3
:1006B000F7D043EA0603704794EA0C0F0CEA13558F
:1006C00018BF95EA0C0F0CD050EA410618BF52EA49
:1006D0004306D1D181EA030101F000414FF000004F
:1006E00070BD50EA410606BF1046194652EA43065D
:1006F00019D094EA0C0F02D150EA013613D195EAD1
:100700000C0F05D152EA03361CBF104619460AD118
:1007100081EA030101F0004141F0FE4141F4700122
:100720004FF0000070BD41F0FE4141F4780170BD12
:1007300070B54FF0FF0C4CF4E06C1CEA11541DBF77
:100740001CEA135594EA0C0F95EA0C0F00F0A7F879
:10075000A4EB050481EA030E52EA03354FEA0131A6
:1007600000F088804FEA03334FF0805545EA1313B9
:1007700043EA12634FEA022245EA111545EA106581
:100780004FEA00260EF000419D4208BF964244F118
:10079000FD0404F5407402D25B084FEA3202B61A37
:1007A00065EB03055B084FEA32024FF480104FF40B
:1007B000002CB6EB020E75EB030E22BFB61A75467F
:1007C00040EA0C005B084FEA3202B6EB020E75EB12
:1007D000030E22BFB61A754640EA5C005B084FEA7A
:1007E0003202B6EB020E75EB030E22BFB61A754647
:1007F00040EA9C005B084FEA3202B6EB020E75EB52
:10080000030E22BFB61A754640EADC0055EA060E12
:1008100018D04FEA051545EA16754FEA06164FEA55
:10082000C30343EA52734FEAC2025FEA1C1CC0D101
:1008300011F4801F0BD141EA00014FF000004FF08E
:10084000004CB6E711F4801F04BF01430020B4F14F
:10085000FD0C88BFBCF5E06F3FF6AFAEB5EB030C07
:1008600004BFB6EB020C5FEA500C50F1000041EB04
:10087000045170BD0EF0004E4EEA113114EB5C04D1
:10088000C2BFD4EB0C0541EA045170BD41F48011A4
:100890004FF0000E013C90E645EA060E8DE60CEAAC
:1008A000135594EA0C0F08BF95EA0C0F3FF43BAFC9
:1008B00094EA0C0F0AD150EA01347FF434AF95EA80
:1008C0000C0F7FF425AF104619462CE795EA0C0F64
:1008D00006D152EA03353FF4FDAE1046194622E731
:1008E00050EA410618BF52EA43067FF4C5AE50EA0B
:1008F00041047FF40DAF52EA43057FF4EBAE12E7FB
:1009000053B94AB9002908BF00281CBF4FF0FF3176
:100910004FF0FF3000F00CB8ADF1080C6DE904CEDB
:100920000BF070FDDDF804E0DDE9022304B0704750
:10093000704700BF2DE9F00791E8F807B2E8021010
:100940005B1854EB0C04B2E802104D4156EB0C0658
:10095000B2E802104F4158EB0C08B2E8021059EB14
:1009600001095AEB0C0A80E8F80780410130BDE824
:10097000F00770472DE9F00791E8F807B2E8021098
:100980005B1A74EB0C04B2E802108D4176EB0C0696
:10099000B2E802108F4178EB0C08B2E8021079EB54
:1009A00001097AEB0C0A80E8F80780414042BDE873
:1009B000F00770472DE9F007524290E87800B1E85F
:1009C00080071740DB1918EA020854EB080419EAFB
:1009D000020955EB09051AEA020A56EB0A0678C025
:1009E00090E87800B1E8800717407B4118EA0208D8
:1009F00054EB080419EA020955EB09051AEA020A40
:100A000056EB0A0678C080410130BDE8F007704718
:100A10002DE9F007524290E87800B1E880071740CE
:100A2000DB1B18EA020874EB080419EA020975EBEB
:100A300009051AEA020A76EB0A0678C090E87800FF
:100A4000B1E880071740BB4118EA020874EB0804BC
:100A500019EA020975EB09051AEA020A76EB0A0699
:100A600078C080414042BDE8F00770472DE9F001B1
:100A700052424FF0040890E8300091E8C000A31BF8
:100A80001340E41AF618EB1B1340ED1AFF1830C0A0
:100A9000C0C1B8F10108EED1BDE8F001704700BF58
:100AA00000B592EC080AB1E8805707EE101A53EC33
:100AB000102A56EC114AA7FB0251A8FB020BE7FBD8
:100AC0006310E9FB62B041EC145AA8FB0351EAFB46
:100AD0006201E7FB64B5E7FB6605E8FB661505EE1A
:100AE00010BAA9FB03B6EAFB6316ECFB6356E8FBFE
:100AF000640BE9FB641BEAFB645BECFB646B05EED7
:100B0000900AACFB023012EE104AEEFB6250E9FB99
:100B10006460EAFB64B0E7FB6431E8FB645112EE09
:100B2000904AE8FB6461E9FB64B1EAFB640106EE0C
:100B3000103AA7FB043213EE104AE7FB6462E8FBAD
:100B400064B2E9FB6402EAFB641211EE904AE9FB2D
:100B50006453EAFB646313EE904AE7FB64B3E8FB7B
:100B60006403E9FB6413EAFB642306EE905A17EE74
:100B7000109A99E8000610EE108AA9FB0854EAFBC7
:100B800068B412EE108AECFB6804EEFB6814E9FB13
:100B90006824EAFB683410EE908AEEFB6865E9FB96
:100BA00068B5EAFB680512EE908AECFB6815EEFB6F
:100BB0006825E9FB6835EAFB684507EE106A11EE27
:100BC000108AAEFB0876E9FB6806EAFB681613EEAE
:100BD000108AECFB6826EEFB6836E9FB6846EAFB08
:100BE000685611EE908AECFB68B7EEFB6807E9FBEC
:100BF0006817EAFB682713EE908AECFB6837EEFB78
:100C00006847E9FB6857EAFB686700BD2DE9F04FCC
:100C100007EE900AFFF744FF17EE908A07EE90BAAE
:100C2000A8EC084A88E8FF00BDE8F08F00B591E81D
:100C30009857A3FB0352A3FB0401E3FB6420E3FBEF
:100C4000671042EC145AA3FB0752E3FB6802E4FB73
:100C50006415E3FB6805E3FB6925A4FB07B6E3FB2A
:100C60006926E3FB6A56E4FB670BE4FB682BE3FBB6
:100C70006A5BE3FB6C6B40EC151AA4FB0810E4FB09
:100C80006950E3FB6C60E3FB6EB0E7FB6721E4FBBC
:100C90006951E4FB6A61E3FB6EB1E4FB6E0106EEB1
:100CA000102AA7FB0832E4FB6A62E4FB6CB2E4FBA7
:100CB0006E02E7FB6E12E7FB6853E7FB6963E4FB38
:100CC0006CB3E7FB6C03E7FB6E13E8FB6E2306EEE9
:100CD000905AA7FB0954E7FB6AB4E7FB6C04E8FBF6
:100CE0006C14E8FB6E24E9FB6E34E8FB6865E7FBF7
:100CF0006AB5E8FB6A05E8FB6C15E9FB6C25E9FBC6
:100D00006E35EAFB6E4507EE106AA8FB0976E8FB34
:100D10006A06E9FB6A16E9FB6C26EAFB6C36EAFB1D
:100D20006E46ECFB6E56E8FB69B7E9FB6907E9FB29
:100D30006A17EAFB6A27EAFB6C37ECFB6C47ECFBB3
:100D40006E57EEFB6E6700BD2DE9F04F07EE900A7F
:100D5000FFF76CFF17EE908A07EE90BAA8EC084AEE
:100D600088E8FF00BDE8F08F30B44FF0000310F8C2
:100D7000014B11F8015B013A84EA050443EA0403DC
:100D8000F5D1A3F101034FEAD37030BC704700BF27
:100D90004FF0000310F8012B013943EA0203F9D1A7
:100DA000A3F101034FEAD370704700BF30B411F8CC
:100DB000014B12F8015B6C4000F8014B013BF6D18E
:100DC00030BC70472DE9F00791E8F807B2E802104F
:100DD0005B1854EB0C04B2E802104D4156EB0C06C4
:100DE000B2E802104F4158EB0C08B2E8021059EB80
:100DF00001095AEB0C0A8941B3F1FF3374F1FF3456
:100E000075F1FF3576F1000677F1000778F10008FB
:100E100079F101097AF1FF3A51F100015B184C4177
:100E20004D4156F1000657F1000758F1000859EB03
:100E3000D1795AEB010A80E8F807BDE8F00770475E
:100E40002DE9F00791E8F807B2E802105B1A74EB9D
:100E50000C04B2E802108D4176EB0C06B2E80210E9
:100E60008F4178EB0C08B2E8021079EB01097AEBBC
:100E70000C0A89415B184C414D4156F1000657F16F
:100E8000000758F1000859EBD1795AEB010A80E8C4
:100E9000F807BDE8F007704718EB040859EB05099F
:100EA0005AEB060A5BEB070B5FF0000C4CF1000CF1
:100EB00018EB050859EB06095AEB070A5BEB070B21
:100EC00050EB0C005FF0000C51EB0C0152EB0C02EC
:100ED00063414CF1000CB8EB070879F100097AF195
:100EE000000A7BEB040BA841B141A241B3416CF174
:100EF000000CBBEB050BB041B941AA41BB416CF101
:100F0000000C4CF001068CF0020718EB060859EBB8
:100F10006C095AEB6C0A7BEB6C0B70EB6C0471EB9D
:100F20006C0572EB670653EB6C076CEB6C0C18EB03
:100F30000C0059EB0C015AEB0C025BF1000354F16D
:100F4000000455F1000556EBDC7657EB0C077047B3
:100F50002DE9F04F07EE900AFFF7A2FD59EC168A33
:100F600017EE10AAFFF798FF59EC148A5BEC15AA4C
:100F7000FFF792FF17EE908A88E8FF00BDE8F08F38
:100F80002DE9F04F07EE900AFFF750FE59EC168A54
:100F900017EE10AAFFF780FF59EC148A5BEC15AA34
:100FA000FFF77AFF17EE908A88E8FF00BDE8F08F20
:100FB0001FB50B4B01934FF48C73ADF80830082329
:100FC0008DF80A3083788DF80B3001A9FF230120BA
:100FD0008DF80C3000F084FB05B05DF804FB00BF19
:100FE000FFF400001FB50A4B01934FF43673ADF8C0
:100FF000083008238DF80A3001A943788DF80B30AA
:1010000000208DF80C0000F06BFB05B05DF804FBD0
:101010008DF90000F7B504460D4641B9124B1B7817
:10102000012B04D0019101A80121FFF7F3FF2368F0
:101030000E4E0F4F0733002D23F0070323600CBF24
:101040002046002000F028FB002556F8043B0BB199
:10105000384698470135032DF7D100F091FB2368FE
:101060001844206003B0F0BDD009002040000020EB
:10107000D20900202DE9F7432A4C0190074601A828
:101080000E46FFF7C7FFA578E3784FF000091D442F
:10109000EDB2C8465FFA89F39D4238D80198033013
:1010A00020F00300002E0190414618BF002000F000
:1010B000A9FC019B21791D18019589B16379627C96
:1010C0000335002E25F003051A44D2B2A3890195F9
:1010D0000CBF2846002000F009FD019B1844019038
:1010E000A17B79B123796BB1019B073323F007030F
:1010F000002E0CBF18460020019304F0ABF8019BB2
:10110000184401900198C01B03B0BDE8F083A37A96
:10111000627A217AE0790CF009F809F1010980443A
:10112000B8E700BFD00900208FB572B6194B9D6A91
:10113000E5B9BFF34F8F1849184BCA6802F4E06253
:101140001343CB60BFF34F8F00BFFDE7B4FBF6F452
:10115000DAB20133002CF9D102F110036B440A26F4
:1011600003F80C4C32B901A8A847E2E70446002373
:101170000A26EDE7531E04AC54FA83F4DAB2C3B284
:10118000B3FBF6F706FB1733303304F80C3CB0FB27
:10119000F6F0E7E7D009002000ED00E00400FA05D2
:1011A0001FB5104B9A7A8DF809205A7A8DF80820CD
:1011B00002A81A7ADB79ADF80C20ADF80A3002F0FB
:1011C0003FFC18B1DB210320FFF7AEFF012301A88C
:1011D0008DF804300DF01CF808B1DF21F3E705B0FD
:1011E0005DF804FBD009002038B5044690B30AF03E
:1011F00019FD10B94FF0FF3038BD07F077FBB0F59F
:10120000FA7FF7D8164D1748AC6200F0E5F9164B97
:1012100028460024C3E900449C6000F8024B2622C3
:1012200021460BF07DF80123EB702B711B23EB7132
:1012300040F21B332B810223AB721F23AB810823A7
:10124000AB73EFF3108572B600F026FD2DB962B6D0
:101250002846D1E76FF01500CEE72046CCE700BF67
:10126000D0090020A11100004000002010B5002886
:1012700036D1204C2378022B2FD059B1002A32D0FE
:10128000023905292CD8DFE801F0030F1D2B20239C
:101290001378E37001210020FFF7ECFEB0F5803FEA
:1012A00024DA0123237010BD9378E3B1D378D3B14E
:1012B00013781A2B17D953781A2B14D91368C4F83A
:1012C0000730E7E713782371E4E71388A381E1E7A8
:1012D0001388FF2B07D8A373DCE74FF0FF30E2E75A
:1012E0006FF02C00DFE76FF01500DCE76FF00B000C
:1012F000D9E700BFD009002070B50D460646E8B119
:10130000E1B111F0070419D100F0A4F8C8B13046DA
:101310000AF0FCFD0C4E214686F82C002846FFF70B
:10132000A9FE0EF075FB96F82C00214602F01CFC7D
:10133000FFF736FF02233370204670BD6FF01500B3
:10134000FBE74FF0FF30F8E7D009002010B5074C5D
:101350002378022B05D102F01FFC94F82C000AF030
:10136000F1FD0BF0D0FF0020207010BDD00900204F
:1013700050B1074B03F1140253F8041B40F8041B4F
:101380009342F9D1002070476FF01500704700BFFD
:101390000CD4020010B5064B1C7834B902F0AEFB39
:1013A000044B054A5A60204610BD4FF0FF30FBE762
:1013B000D009002040000020B10F000010B5064BFE
:1013C0001C7834B902F0AEFB044B054A1A60204683
:1013D00010BD4FF0FF30FBE7D00900204000002097
:1013E000E50F000010B5054B1C781CB902F052FB4C
:1013F000204610BD4FF0FF30FBE700BFD0090020B2
:1014000010B5054B1C781CB90CF018FF204610BD18
:101410004FF0FF30FBE700BFD009002010B5054BAF
:101420001C781CB90CF00DFF204610BD4FF0FF30AA
:10143000FBE700BFD0090020024B02681A600020C1
:10144000704700BF000A0020014B1B68184700BF0F
:10145000000A0020024B1868003818BF01207047AE
:10146000000A00202DE9F341284E031D0446336095
:10147000304603F0B9F90228054607D12349204632
:101480000BF02FF9284602B0BDE8F081042836D1D0
:101490003378072B18D13E2000F04EF878B9F37856
:1014A000327901A943EA02236846ADF800300BF017
:1014B000E6FB0028DCD053210820FFF735FE05208D
:1014C00000F07AF80028EAD0314620460BF070F997
:1014D000B0F5817F01D37221EEE70028C8D02778CC
:1014E00094F80280384600F027F80028C0D03E2F3C
:1014F000C8D1404600F060F80028C3D1B8E70828FA
:10150000C0D1024920460BF01BF9BBE7040A0020BA
:10151000074B4FF0FF3141F6FF72C3E90012054956
:101520000022C1E900221F21C3E90212704700BF57
:1015300000000020480A00203F280CD801380B4B3F
:10154000C0F3421200F01F0053F8223023FA00F0DB
:1015500000F001007047FF2806D04038C0F3421267
:10156000034B00F01F00EFE7012070470000002050
:10157000480A00200146074B006849681A4603C222
:1015800040F48C221A6041F0107242F4FF625A60FB
:10159000704700BF000000200246024B00685168FF
:1015A00003C37047480A00200246024B0068516896
:1015B00003C37047080000200138064BC0F34212F5
:1015C00003EB820300F01F009B6823FA00F000F099
:1015D0000100704700000020014B1860704700BFF9
:1015E000500A002007B5FFF793FF0CF086FA044B72
:1015F0001B6813B101909847019803B05DF804FB94
:10160000500A00200B880288F0B5C3F30E049EB286
:1016100004F11803C57CC35A05352A442B4497B2FC
:1016200013FA82F3013B4288B3FBF7F313FB074342
:101630009BB29A42044A93BF22EA06033240134304
:101640009BB20B80F0BD00BF0080FFFF10B5114BB7
:1016500000EB41041A786389B3FBF2F303FB022326
:10166000013A1A44B2F5706F027928BF00231A4478
:101670008378B2FBF3F0194403FB1020091AB1FB85
:10168000F3F003FB101313446FEA43436FEA534331
:10169000638110BD540A002010B5104BC8B15A78B0
:1016A000022A04D040F22B111720FFF73DFD032240
:1016B0005A70026812F0070102D04FF49871F3E7F4
:1016C0005C685A6022440260C3E903119A60596160
:1016D00010BD0122C3E901005A70F9E7540A002045
:1016E0002DE9F041254E96F801E00EF0FD0CBCF11D
:1016F000010F04D040F245111720FFF715FD91F8B6
:101700000680B8F1080F02D940F24711F4E7CF790B
:1017100097B34546022D726838BF02257B1D5C00D9
:1017200002EB43036A1E13446D422B408D884544EF
:10173000013DC8F100022A404FF6FE75AA4202D9C7
:101740004FF4A971D8E7BEF1030F12D106EB800068
:101750001C1BC56815B140F25711CDE7C460A770D6
:10176000228084F803C0087A09682071080CE080A0
:10177000218107FB02337360BDE8F081540A002029
:101780002DE9F047364C6378012B65D0032B04D04C
:1017900040F267111720FFF7C7FCD4E901329A42E3
:1017A00002D04FF4B571F5E72546002305F80C3B50
:1017B0001E460222994655F82200013A58B190F887
:1017C00004808178B8F1FF0F2FD180F804908E4209
:1017D0003CBFCEB20123511CEDD103B126700226CD
:1017E00040F6FF6955F826709FBB013EFAD20423EC
:1017F00063700020BDE8F08755F82CE0BEF1000FC3
:1018000006D09EF804A0C24504BF9EF802E07744CB
:101810000CF1FF3CBCF1000FEEDA3944FF2907D987
:1018200003B126704FF48371B4E794460027F1E7C3
:101830000771CCE707EB41033846A3F80A90FFF79E
:1018400005FF08F10108BB785FFA88F18B42F1D8F7
:10185000CBE74FF00008F6E7022360686370C9E742
:10186000540A0020F8B54FF6FF730380184B03EBC2
:1018700081010546C868B8B186780379B3FBF6F2F2
:1018800006FB1233DBB219460A1D00EB4202B2F925
:1018900002705488002F09DB0131B1FBF6F206FB20
:1018A0001211C9B28B42EFD10020F8BDFF29FBD045
:1018B000C4F30E03C4782B8024B94FF4D9711720D8
:1018C000FFF732FC5380BDE8F8400BF00EBC00BFC0
:1018D000540A00201D4B03EB810170B5CC6805460E
:1018E00044B3030404D54FF4E0711720FFF71CFC48
:1018F000014620460BF0DBFBFF28014604D02046C2
:10190000BDE870400BF0F1BBA078B5FBF0F300FB35
:101910001353DBB219460A1D04EB4206B6F9026006
:10192000002E09DB0131B1FBF0F200FB1211C9B24C
:101930008B42F0D1002070BDFF29FBD08B4204EB1D
:1019400042021CBF0023E3705580D8E7540A0020F0
:10195000094B03EB810110B5CC68014620460BF022
:10196000A6FBFF28014604D02046BDE810400BF03E
:10197000BCBB002010BD00BF540A0020F8B5104BBE
:1019800003EB81010746CC68014620460BF08FFB34
:10199000FF28054611D0E688238953EA064606D07B
:1019A000014620460BF0A1FB01463846B0472046D1
:1019B0002946FFF74BFE0020F8BD0320FCE700BFDF
:1019C000540A002038B50E4B827903EB820304469B
:1019D000D86808B9022038BD8278E1799142F9D2FD
:1019E0004B1CE37100EB41035D89B3F90A30002B16
:1019F000F3DBA5800BF079FB20600020EBE700BF54
:101A0000540A002070B5044610F003000E4603D0BF
:101A100049211820FFF788FB0BF0EEFA054624B1A8
:101A20000348314604600BF0E7FA284670BD00BF5A
:101A30006C0A00202DE9F04F1E4C85B092462268BA
:101A4000BDF83CB098468146BDF838300D461AB90D
:101A50005B211820FFF768FB1A460A2150460393C2
:101A60000BF075F95A460646092140460BF06FF90E
:101A70003118074620680BF0E9FA039BC9F800000B
:101A800018B9286005B0BDE8F08F84192C60D9F82A
:101A900000000093524631460A230BF00AF92868E9
:101AA000CDF838B009234246394605B0BDE8F04FBD
:101AB0000BF0FFB86C0A002070B50E4604460BF020
:101AC0004FF9054630460BF04BF9044B2A182146D6
:101AD0001868BDE870400BF0E3BA00BF6C0A002044
:101AE000014B18680BF0A5BA6C0A0020F8B5114438
:101AF0001D4EC9B210F00305317003D04D210920ED
:101B0000FFF712FB1F2B19D89B009BB2033323F066
:101B100003039BB208B17060338101EB81047668E6
:101B2000E2004FF0010C00EBC404EFB2B94212D84E
:101B3000D01D03FB010020F00700F8BDFF2B4FEA8A
:101B4000430204D9FF339342DFDB93B2DEE77C2A02
:101B5000FBDC7C23DAE710B186F800C07460013545
:101B600028361C44E1E700BF700A002038B5144A4B
:101B7000147853680021C8B2844203D8A8210920F0
:101B8000FFF7D2FA1846013105782833002DF2D03C
:101B90000021817001241289447044688161C1610F
:101BA000920800F12001051D21F8022B994245F809
:101BB000044B1444F8D100234361037038BD00BFC7
:101BC000700A00202DE9F8434B7880460C4602F05D
:101BD000040602F0FB07D3B1DFB12E4BD4F804901A
:101BE0001D89B7BB01236370AD08A761E76104F1EC
:101BF00020034A46211D04F1280023F8025B984285
:101C000041F8042B2A44F8D10023636101E0002F3E
:101C1000E3D0FF23A370002E18BF0226A3191B7D5B
:101C2000032B03D1022F1CBF0136F6B2A3190122E8
:101C30001A7506F10C0204EB8606002324F8123014
:101C40007268A370C8F80020A8F804304046BDE8C8
:101C5000F883002114226170A0180AF061FBB5F529
:101C6000FF7F0FD26B08ED1AADB209EB0502C4F885
:101C700004902584A2606384C4F80C90A58422613A
:101C8000E384C6E7B5F5EE6F4FF0FF03EBD940F202
:101C90007265EAE7700A0020134B012200214FF021
:101CA000FF309A60C3F80012C3F80803C3F80015A8
:101CB000C3F804259A60C3F80803C3F80015C3F8F5
:101CC00004250A490A4A03F580334FF40040C3F85B
:101CD0000825C1F88000BFF34F8FBFF36F8FC1F8A5
:101CE0008001C3F80825704700F0004000E100E0E3
:101CF0000000F63F0A46192302F8033B0448C36874
:101D0000C1F803300369536043699360704700BFB3
:101D1000800A0020024B5A8C02435A845B6A18479F
:101D2000800A0020014B00215B6A1847800A0020CE
:101D300010B5154C05F032FF05F052FB208DFFF772
:101D4000F1FF237E6BB12246104952F80C3BE36051
:101D500063685360A368936004F1190002220CF0D9
:101D600068FF236B93F87030022B02D1084803F010
:101D700027FAA36B94F8341094F8350098470023A1
:101D800084F83C3010BD00BF800A0020F51C000024
:101D9000AC0A0020034B93F83C300BB1FFF7C8BFEF
:101DA000704700BF800A002070B51D4C256B636C26
:101DB000236495F89C30064694F848000BB1031D47
:101DC000D8B295F869102EB9FF2803D195F868307C
:101DD0008B4201D005F0A4FD95F89C30D3B1E06CA6
:101DE00006F05EF8012384F86830D5E94023E16C01
:101DF000206CC4E9182305F0A9FA16B9304606F09C
:101E00008DF895F86810002006F0D2F8022384F8C7
:101E10003C3070BD206C06F043F805F0E1FAECE7C9
:101E2000800A00202DE9FF41414C94F83C30266B9C
:101E3000012B05460F465FFA83F804D040F2754146
:101E40002720FFF771F996F88C303BB1002186F816
:101E50008C100420FFF75EFF86F88E80A16F0B7850
:101E600003F00303032B05D196F8923013B9022037
:101E7000FFF750FFA26F137803F00303032B03D087
:101E80005378002B3FD1012386F8923096F89C308E
:101E9000BBB1D6E94001236B94F848200392C4E912
:101EA00018014FF0010893F8690084F868800BF07E
:101EB0002CFA002103460091039A1E49404605F082
:101EC000FFF9DDB9D7B1E36F28469847B0B194F870
:101ED00034309BB994F88030D906C3F300125CBF4C
:101EE000636C1D78D4F884305CBFC5F30015C5F170
:101EF000010553B9B4F888303BB132B904B0BDE83C
:101F0000F041FFF715BF0223BEE7638C9A0709D59E
:101F1000A36FDB78022BF1D1002004B0BDE8F041C3
:101F2000FFF742BF002DE9D1002BF5D0E6E700BF57
:101F3000800A0020D00A002008B5094B93F83C2005
:101F4000022A04D04FF40F712720FFF7EDF8DA7A58
:101F500042F00102DA72BDE80840FFF7E9BE00BFB7
:101F6000800A0020044B93F83C2002F0FF000AB9DD
:101F7000187670470C207047800A00200A4B0B4AE5
:101F800070B506460D461A60FFF7ECFF18B1DE216A
:101F90002720FFF7C9F8064C012104F18A000CF054
:101FA00038FD6664E56470BD4C0000205C270000CD
:101FB000800A0020024B012283F8AC20704700BF4A
:101FC000800A0020F0B57F4C85B002AE86E80300A1
:101FD00094F83C100A9F01F0FF0511B90AB103B152
:101FE00027B940F24F112720FFF79EF896E803002B
:101FF00004F12C0C8CE8030084F8AC5084F83450C5
:1020000084F8AD5084F8355084F8AE506584258549
:10201000256BE3676262A76305F0C0FC05F0E0F999
:1020200095F96C0005F04CFD686A05F02BFFE86936
:1020300005F04CFD95F8AC0005F06EFD236B93F8B0
:10204000FF310BB105F098FC95F86910012005F0FF
:1020500035FE002800F0B4805B4B5C4E186805F03C
:1020600017FF2B69C4F8B0306B69C4F8B43005F5BC
:102070008C7705F5847318685968324603C20833B3
:10208000BB421646F7D1D5F81821C4F869205A6822
:102090004F4B5A60236B93F89620A2F1250101293A
:1020A00093F868100E4603D993F89700252853D16A
:1020B00093F8AE322BB1012E03D0012B14BF0226B0
:1020C000012605F13007314638460CF042FE314614
:1020D0000CF0F8FAAB8F95F86910984228BF1846B3
:1020E00084F8B80038460CF01DFE95F8691095F894
:1020F0009C70B5F84460082908BF04210CF0E2FA8E
:102100000FB9043080B2B04228BF304695F89C30F9
:10211000C6B284F8486093B1D5E9402395F86900C8
:102120000127C4E9182384F868700BF0EEF8002248
:102130000346009225493246384605F0C1F8012091
:10214000FFF732FE234BD3F8503523F00803032B5F
:102150002AD140F2F91146E7203A012A0CD8232867
:1021600093F83E210AD012F0010319D19207A8D5A5
:10217000012918BF0226A4E723280DD193F83E2198
:1021800093F86130134013F001020BD19B0798D5EF
:10219000012908BF0E46ECE7042908BF082690E78E
:1021A0001E468EE716468CE7002323606360A3601B
:1021B000B5F8903063802B88238095F8AC3023717C
:1021C00005B0F0BD800A00204C000020D00A00209D
:1021D000E90A00200010004008B50C4B93F83C20A1
:1021E0001AB9BDE80840FFF7A3BD93F83C20022AC6
:1021F00004D040F212212720FEF796FF1B6BD3F884
:102200001802BDE8084005F05DBE00BF800A00204E
:10221000014B1876704700BF800A0020014B93F8ED
:10222000AE007047800A0020024B188DC0F380205A
:10223000704700BF800A0020014B93F8AD00704743
:10224000800A00202DE9F3411E4D82072C6B0646C3
:102250000F4622D5D5F8843023B940F266412720B5
:10226000FEF762FFB5F88820296C1846033291F812
:10227000018009F0DFFF0DF1020201A92864D5F801
:10228000B4000AF0AFFE01980AF096FE0122386011
:102290004146D5F8B4000AF03BFEF3070ED5D4E969
:1022A0004032013342F10002C4E9403294F89430E4
:1022B000012B0CBF0023012384F8943002B0BDE849
:1022C000F08100BF800A00202DE9F04FA04C0023D0
:1022D00087B0CDE9043394F83C30276B022B80465D
:1022E0008A4604D04FF49D612720FEF71DFF238D01
:1022F000590606D44020FFF715FD238D43F0400317
:10230000238597F89C30B8F1000F00F01281A3B13B
:1023100005F094F805F078F878B9236C5A7862B132
:102320001B7897F89420C3F3C0039A4205D1012388
:1023300084F83530FFF7FCFC4FE1236C5978A4F8A2
:10234000881011B3D4F8B4000AF0B8FDC4F88400C2
:10235000238D97F8932043F480732385236C1B7897
:10236000C3F380039A4200F0B980256B95F8923050
:10237000002B3ED0022B12D1D4F8B00004A90AF0F1
:1023800034FD28B94FF47971AEE7C4F88410DFE763
:10239000D5E93E32013342F10002C5E93E3295F8FB
:1023A0008E30002185F8921023B185F88E10102010
:1023B000FFF7B0FC95F88D309BB1002685F88D6055
:1023C00001F0BEFD10B940F2FB318DE73146082027
:1023D000FFF7A0FCD5E93E32013342F10002C5E926
:1023E0003E3295F89330012B0CBF0023012385F872
:1023F0009330238D43F4806323854FF0000B216CD1
:1024000097F894200D78C5F3C0039A4240F0868077
:1024100005F00305032D266B62D0002D6BD196F8D5
:102420009430013B18BF012386F89430236C5B780D
:1024300033B1D6E94032013342F10002C6E94032FD
:1024400097F89B3093B1D7E93E01236BC4E918019B
:10245000002693F8680084F868600AF056FF3D494A
:1024600000960346FB22304604F02AFFBAF1000F23
:1024700072D1628C94F8AD30120703D5A26FD27876
:10248000022A69D0012B67D8E36F01209847002802
:1024900062D094F83490B9F1000F5DD1266B94F8B6
:1024A000483096F89C208DF80D90002A40F09880D6
:1024B000FF2B96F8681003D196F869308B4202D052
:1024C000FF2005F02DFA96F89230032B00F22F81B1
:1024D000DFE813F089000E0111012401C3468EE7E5
:1024E000238D012043F4006386F88C002385FFF7D9
:1024F00011FC002593E74B78002BFAD0228DD4F8FD
:10250000845042F400622285002D99D0FB2B07D81D
:1025100094F8AC305BB12020FFF704FC00258FE776
:1025200094F8343043F0100384F83430F6E745462D
:1025300075E70BB104F0B8FF94F8AD30013384F8BF
:10254000AD30238D002543F400732385AB4677E738
:10255000800A0020D00A002005F04AFD4FF0010A51
:102560001DB105A90220FFF76DFEBBF1000F0DD0D4
:10257000B4F80720B4F805301343B7F8902013439C
:102580001EBFB4F809300133A4F80930B8F1000FC8
:1025900000F0D580B4F805300133A4F805300023ED
:1025A00084F8AD30694802F0E9FD049840B10AF0C2
:1025B00003FD216B00234372072201300CF027FB3F
:1025C000059B33B1216B00221A720C2205980CF086
:1025D0001EFBBAF1000F7FF4ADAE07B0BDE8F08F7F
:1025E0000433DBB264E794F8B830ADF80E305848E5
:1025F000A6F8583001F094FC00285DD0A16F80202F
:10260000FFF788FB012386F88D3096F89330A26F90
:10261000DB0003F00801137803F0F3030B4396F893
:102620009410890001F004010B4323F0100103F022
:102630000303032B117002D1D378022B0FD0D4F8EF
:10264000B0000AF01AFC40B9A36F1B7803F0030333
:10265000032B04D001F08AFC08B94FF01009A06FD9
:10266000037849EA030980F8009096F89B30002B24
:1026700060D04378002B5DD0E06C05F011FC0023A6
:1026800084F86830D6E93E23A16FE06CC4E91823D2
:1026900004F05CFE96F86910012005F089FCA26F39
:1026A0001188A4F8801091782A4A012384F8AE306A
:1026B000917084F83C3053E7D4F8B0000DF10D026E
:1026C0000DF10E010AF06EFBA06788B196F8D730C5
:1026D00073B99DF80D302BB903808370A06F012171
:1026E0000CF097F9BDF80E10A06F0CF05FFA8CE7B4
:1026F000194BA36789E7B6F85830D4F8B000ADF8A5
:102700000E300DF10D020DF10E010AF04BFBA0672A
:1027100000287FF47AAF40F2D521E5E50C4801F0BE
:10272000FFFB00287FF471AF40F2DE21DCE540F2D0
:10273000EB21D9E505F0B4FB04F052FEAAE7B4F8AA
:1027400007300133A4F807302CE700BFAC0A0020A3
:10275000F80A0020000B00200A0B0020391F00009F
:10276000C9220000251E0000951D00000B2808B599
:1027700004D94FF452710620FEF7D6FC014B33F812
:10278000100008BD409302002DE9F04F2DED028BA3
:102790008BB0044615460293894690F869B00BF059
:1027A0009BFD064694F80002FFF7E0FF94F897308F
:1027B0000393304485F0010386B2059355BB94F82A
:1027C0004C32032B26D1039B0D2B23D1B4F8AC3212
:1027D0004B451FD1D4F85432C4F84032A369B4F841
:1027E0001E22C4F84432B4F892321344C4F848327A
:1027F000204604F085FCD4F8B032A362B4F8AE32BF
:10280000A385D4F8B432A361D4F8B832236202238A
:1028100084F84C32B4F89072B4F89080A9EB0707B2
:102820003FB204F51A73002F08EE103AB7BFD4E98F
:10283000A023029BC4E9A22301230493CD4BA9EB5F
:1028400008081B780FFA88F8B8BF474603F0FF0561
:10285000002B53D006F0CAF800286FD0B4F83432F9
:10286000012B6BD994F84C32022B67D094F862524A
:10287000002D63D194F80002FFF778FF94F84C32F2
:1028800000F5C860012B86B2D9B24AD194F89A30CB
:10289000D4F828A0032B3ED1D4F8445255443146F5
:1028A000D4F8440205F0F8FFD4F84032C4F84002EE
:1028B000A0EB030AD4F848323146284603FB0AFA53
:1028C00005F0EAFFD4F85052C4F85002451B3146D7
:1028D000A06905F0E1FFAA44B4F81E52D4F84832CA
:1028E0004544ED1BDB432B44D4F85452451B05FBF8
:1028F00003A50123C4F8540284F8623294F84C32E0
:10290000DFF870A2032B00F28081DFE813F01900DA
:1029100014016900350128460BF0FEFE00EB0A05A4
:10292000BDE7A069314605F0B7FFB4F81E52D4F8F0
:1029300054324544ED1BC31A5D43DAE70025DDE759
:10294000012100200BF0E8FE8046A06A3146404499
:1029500005F0A2FF3146C4F85002A06905F09CFFC3
:1029600007A9C4F8540208A805F04AFB079B009386
:10297000D4E9A201DDE9082309F038F8074620462A
:102980000AF009FDD4F89832A66A94F869001E444A
:1029900005F07CFCD4F85012A38D203E761AB0448A
:1029A000A8EB070800F5234030314FF47A7703EBAA
:1029B0004101A130B0FBF7F0A8EB000794F86900E3
:1029C0000AF0D6FCD4F89832FB1A2230B3F5CA7F4D
:1029D000CAF8040055D840F2F2413020FEF7A4FBBB
:1029E000A36AD4F844023146184405F055FF314635
:1029F000C4F85002A06905F04FFFC4F85402204605
:102A00000AF0C9FCB4F81E32A66AD4F84472002B4E
:102A100040F08C80029B002B00F0888094F869B015
:102A2000584605F033FC3E44D4F89C12D4F850329A
:102A300004938046203E58460E4405F01FFC049B3C
:102A4000F61A361A08F523484FF47A7708F1A108E8
:102A5000B8FBF7F8A6EB0807D4F85012D4F84032C8
:102A6000D4F8482294F86900303102FB0311A38D99
:102A700003EB41010AF07CFC0123CAF8040084F84E
:102A80004C32A669D4F85432A6F21F26F61ADAF8A8
:102A900004309E4228BF1E467423A4F87032D4E945
:102AA000A2327F1BDF1942F100024FF00008C4E997
:102AB0009E72C4F8186284F8688204F130000CF049
:102AC0002FF9B4F80812A4F89092D4E99E23A1EB50
:102AD00009090FFA89F9C145C4E9A223C8BF022335
:102AE00084F87282C8BF84F87232039B30440D2B85
:102AF000C4F86C02029B00F08B80002B40F08980B0
:102B000094F84C32002B00F0A280A169D4F8543222
:102B100018EE100AC91A0BF0A4FD80B2002800F0CC
:102B20009680169B03B118800120A0E0D4F85002D3
:102B300037443F1A90E7D4F85422A369D4F84802E6
:102B4000D4F840129B1A5F43B4F81E329844C34332
:102B50009844D4F85032303301FB0033A18D94F8FF
:102B6000690002FB083301EB43010AF001FCCAF8DB
:102B7000040086E73C0B0020A369D4F854021B1A1A
:102B80005F4394F89630252B03D094F89730252B8B
:102B90000AD1B4F8AC32A9EB03031B0404D494F8B3
:102BA000AF32002B18BF9B46049B03B3B4F81E3210
:102BB000EBB9D4F89C3213B940F244510DE794F8C4
:102BC000690005F063FBD4F89C320646203B94F87C
:102BD0006900049305F052FB049B1F44381A06F564
:102BE0002343A1334FF47A77B3FBF7F7C71BB4F84D
:102BF0001E12D4F8543241445943303149005846EA
:102C00000AF0B6FB1C4B58603BE740F25951E4E632
:102C1000EBB1B4F8341221B3B4F8362294F8383258
:102C2000A4F8362202FB0333994202F101000EDDC3
:102C300094F872325BB1002384F87232A4F8360241
:102C400001F00AFF00F00700013084F8380218EEA6
:102C5000101A94F8940207F01FFE20B940F2A35115
:102C6000BBE60A46DAE7059B84F8603200200BB029
:102C7000BDEC028BBDE8F08F3C0B00202DE9FF413D
:102C8000044618B99C213020FEF74EFA082900F2BC
:102C90002381DFE811F0090071007B007B007600E2
:102CA00021010D0115011F010023C0F89C3290F88D
:102CB0006032B0F89020002B56D0B0F85E329342CC
:102CC0004CD1B0F80C22A0F89020D31AA0F80E3204
:102CD000D4E99E232046C4E9A02304F0F5F894F833
:102CE0001332002B00F0A780A569D4F85432DFF826
:102CF000F0819D4288BFED1A98F8083098BF0025F2
:102D00001BB9236B9D4228BF1D4604F13000D4F847
:102D100018720CF005F80744022008F093FBEE1B34
:102D200026EAE676864228BF06460221304608F0AB
:102D3000D9FB00B9374440F27D22394620460CF0D9
:102D40003AF8D4F81832C8F80C00A069184408F012
:102D50001DFB00286FD140F2AA3194E79A1AA0F81F
:102D60000E22A4F89030B3E7B0F85C329A1AA0F8BB
:102D70000E22B0F85C32F4E704B0BDE8F0410CF08C
:102D800026BE04B0BDE8F04105F046B90CF0C0FE27
:102D9000D4E9A023801A61EB0301012871F100033B
:102DA00002DA4FF4C4616EE76FF0010383424FF023
:102DB00000038B4102DA40F2216164E7A3690BB1A1
:102DC000B0FBF3F394F89710B4F85E220D2935D1D7
:102DD0000132A4F85E22B4F89232B4F89050013374
:102DE000A4F89232B4F8CA301D44B4F8C830013D9A
:102DF000ED1AADB20DF10E06B4F85E126B1A1B049B
:102E000036D594F89A303549002B0CBF3E23082361
:102E100084F8B93004F1B0000BF005FF20460CF047
:102E2000D8FD002384F84C3294F8940207F000FC9B
:102E3000202384F8943204B0BDE8F081B4F89010F7
:102E40000B449BB2D11A090454BF531C01339BB2EB
:102E5000A4F85E3294F86132002BBCD1B4F80C3285
:102E6000B4F85E22934204BF0133A4F85E32B2E7A5
:102E7000002300961A462046FFF786FC0028DAD089
:102E8000012812D1B4F85E22B4F80812BDF80E3051
:102E90001344521A12049BB204D5EA1A12F4004FDA
:102EA00018BF0B46A4F85E32A6E74FF4CC61EAE601
:102EB000012005F0BBFC04B0BDE8F0410AF033BAD4
:102EC00090F84C32042B01D0C021DCE6002380F8BE
:102ED0004C32B0E7C621D6E6CA21D4E6EBEE0000BC
:102EE0003C0B002090F8E8302DE9F04104460D46F7
:102EF000164603F0FF0813B10C20BDE8F08101462F
:102F0000474807F069FB20280746F5D05022414684
:102F100004F1C80009F004FA012384F8C870C4F869
:102F2000CC5084F8E83035B101F0AEFD00F0070078
:102F3000013085F8380220460AF0F7F9002702230D
:102F4000A4F8FA30A4F8F80084F8F07005F0D4FC86
:102F5000B4F8F8509D35284485B220460CF0B4FBF7
:102F6000014668B30BF0B8F900F5CD6081B2304688
:102F700005F092FC3044C4F8F4000CF0C9FD2818A8
:102F800041F10001C4E94001012084F8D000E78448
:102F90000CF067FCDB3E361AC4F8D4604FF0FF3209
:102FA0006FF00043C4E9422394F8C80004F1F00133
:102FB00007F072FC30BB40F2EF113020FEF7B4F89E
:102FC00020460CF0A6FA174FDB30C4F8F400388A1C
:102FD00040B1E08C30B101F057FD3B8AB0FBF3F219
:102FE00002FB130005440CF093FD2D1841F1000184
:102FF000C4E94051002ED1D0751941F10001C4E956
:103000004251D1E7D4E9402300252046C4E93823C2
:10301000A4F8EA5029460CF083FB28466DE700BF70
:103020005BD400003C0B0020F0B5002385B0CDE957
:10303000003301238DF806306846FEF7C3FC70B1FB
:103040001B4E0123B3740027CDE9027702A8FEF7D7
:10305000B9FC0546A8B10020B07405B0F0BD0098D9
:103060000AF0B0FAE8E790F8940208F065FB94F8EB
:10307000940284F84C5207F0DBFA202384F894324F
:10308000E2E7029B002BE1D093F89422202ADDD0C6
:1030900018884FF6FF739842DDD02946FEF758FC9A
:1030A00004460028DFD140F229113020FEF73CF819
:1030B0003C0B0020054B002201211A7219709A74F2
:1030C00042F210721A82FFF7AFBF00BF3C0B002024
:1030D000014B1872704700BF3C0B002008B504F08C
:1030E000E1FB044BDA6882422ABF987C002080F022
:1030F000010008BD3C0B00202DE9F74F04460529CF
:1031000000F29080DFE801F003806D7D8489D0F8C3
:103110009C32002B53D090F86232002B4FD090F8A5
:103120004C32032B4BD190F869B00BF0D5F8074621
:1031300094F80002FFF71AFB814607445846D4F87A
:103140009C5205F09BF8A5EB0008584605F09EF848
:1031500000F2E7335846D4F818624FF47A7AB3FB9A
:10316000FAF3A8EB030805F089F8361A584605F07B
:103170008DF800F52340A130B0FBFAF0321A510867
:10318000A2F16003BFB209F5C86929317B431FFA78
:1031900089F9B3FBF9F360335A08A1EB530398455F
:1031A00002D31144884501D905F00CFEA0693946C7
:1031B00005F072FB0023C4F8540284F862321B4B02
:1031C0009B7C03F0FF0263B9B4F80C120092012358
:1031D0002046FFF7D9FA38B140F2DA613020FDF726
:1031E000A3FF042384F84C3204F022FD07F04CF8CE
:1031F000B4F89020A4F85E220023A4F8923284F858
:10320000613203B0BDE8F08F032380F84C32F8E759
:1032100004F042FBC4F89C02F3E703B0BDE8F04FB2
:103220000AF0B9B840F26E71D8E700BF3C0B00203D
:103230002DE9F84306460C4615468ABB04F032FBDE
:103240000121D4E94089074684F8E850D4F8CC003D
:1032500084F8D05084F8E91001F0CAF8D4F8CC0012
:10326000C0E9A08994F8C82080F89422C0E9A28916
:10327000C0F898720AF0A3F820B140F21D71302016
:10328000FDF752FF04F0D4FC06F0FEFF074994F866
:10329000C800324605F09EFA28B940F28171EEE787
:1032A0004FF4F361EBE7BDE8F88300BF7D2C00002D
:1032B000014B1882704700BF3C0B0020F0B5070C93
:1032C000A7F5AA42144B543A012A03EA90231FD9C6
:1032D00027F4004042F6AA22801A18BF01200022DB
:1032E000162116461F2487EA060562EA0505013500
:1032F00010D0DD03ADB245EA5606E503ADB20139A3
:1033000045EA52024FEA53034FEA5404EBD1F0BDB1
:103310000020E4E70020FAE7E0FF3F0010B50121BC
:103320000020FEF715FB044670B90121FEF7D2FA22
:10333000044620B940F21B313920FDF7F5FE034B5E
:1033400093F900100CF0ADF8204610BD500B002092
:10335000304BF0B55A88B0F85C70B0F85A609D8870
:10336000974228BF1746964228BF16461B2E85B0A7
:103370000C462ED0B5F5A47F2DD040F648039D42D3
:1033800001A928BF1D460AF096FABDF80A309F42EF
:1033900028BF1F46BDF80C30E780AB4228BF2B4644
:1033A0002381BDF806309E4228BF1E46BDF8083076
:1033B00066809D4228BF1D46A580FF232370E388B9
:1033C0001B3B9BB2E02B08D94FF4B7613920FDF7C6
:1033D000ABFE1B2FCED105B0F0BD63881B3B9BB26B
:1033E000E02B02D940F2BA51F0E72389A3F5A47388
:1033F0009BB2B3F5E06F02D940F2BC51E6E7A38877
:10340000A3F5A4739BB2B3F5E06FE4D940F2BE51CB
:10341000DCE700BF500B002008B50BF086F800F089
:10342000F1FE00F0E9FB0BF0F0FB01F085F801F094
:1034300023FF01F099F8084B1B224FF4A4715A8026
:103440009980064B06499A8000221960DA825A82D6
:103450001A835A7408BD00BF500B00207C0F002057
:1034600003021B00044B41F64C52C3E902221B220B
:103470001A74FFF7D1BF00BF7C0F00202DE9FF4178
:10348000364DAB68044640F8303F0AF0D1F80646A6
:1034900000F0A2FB6687324E2B7C84F8383010F0A7
:1034A000200F33681DBFAA886988A4F85A101B2210
:1034B00008BFA4F85A20A4F85C205BB1012302A83D
:1034C0008DF8083003940CF098FA336894F96C1076
:1034D00020889847AE7CEF7CB5F8148041F64C53B9
:1034E000A36116B900F07EFB064657BB00F07AFBDD
:1034F000074646B338B302A920468DF808608DF818
:103500000970ADF80A800BF003F96B7801932B7802
:1035100000936A88AB8804F1140104F11000FEF7EF
:1035200089FA236913B940F28F5114E0636913B922
:103530004FF4B2610FE0002004B0BDE8F081092033
:10354000FAE7002ED7D120880021FEF717FA0028CD
:10355000F5D040F27E513920FDF7E6FD7C0F0020CA
:1035600050000020F7B505460E460BF0CDFF0028B1
:1035700073D028460CF0A8F840B1B6F80130013BF2
:103580007F2B03D91224204603B0F0BD28460CF04F
:103590009FF808B90C24F6E728460AF009F9002834
:1035A000F8D128460BF06EFF04460028F2D12846D9
:1035B00002F020FB0028E5D0B6F80170F17842F265
:1035C0001072284657430CF06CF828460CF074F83B
:1035D000014658B93A462846FFF784FC04460028BD
:1035E000D1D041F616013920FDF79EFD21460DF19F
:1035F0000600FEF737F9064668B3214600F0F8FEEC
:10360000BDF806303380284631460CF077F828465E
:103610000CF064F898B928460CF062F80146304680
:10362000FFF72CFF04460028ADD13A463146284624
:10363000FFF758FC044620B141F63901D3E70121D8
:10364000EDE7074B9B68002B9DD0024606F599716C
:103650003046984797E70D2495E7422493E700BF4B
:10366000500B0020034B5A8802801B788370002087
:10367000704700BF7C0F002037B583781A2B0546B2
:1036800009D8042B05D9012202FA03F3134A134285
:1036900005D112241AE0292B01D03B2BF9D128881F
:1036A000B0F5706FF5D269460AF08EFF88B9019BBC
:1036B00093F8302102F0FF046AB9AA7883F8312127
:1036C000FF2283F8302168460BF07AFA204603B0D7
:1036D00030BD0224FAE70C24F8E700BF20003804CC
:1036E0000188A1F11B039BB2E02B0CD84288A2F504
:1036F000A4739BB244F24810834204D8034B0020C9
:1037000059809A8070471220704700BF500B0020EC
:10371000034B5A889B88028043800020704700BF7B
:10372000500B002038B504784278857804F0010306
:1037300052EA030104F0020401D1112038BDBCB9E2
:10374000002DFAD0002B08BF144601E000242546C6
:1037500020460AF069F80028EFD028460AF064F8FD
:103760000028EAD0054B00209C74DD749882E5E7C0
:10377000002BEBD114461D46EAE700BF7C0F00206A
:1037800013B5008869460AF01FFF18B102242046CD
:1037900002B010BD019A92F84C32DBB292F8B82018
:1037A000002AF3D113F0FB0FF0D0019890F84231CA
:1037B0000BB13A24EBE790F8E23003F0FF04002B62
:1037C000F7D190F8D9309B0706D1012380F8423118
:1037D00068460BF0F5F9DAE702490222DA300BF01D
:1037E00028FAD4E745F30000F0B50778EF2F85B04D
:1037F00004460D4603D91225284605B0F0BDB0F8A1
:103800000130ADF80C309DF80C30DA063FD49E063E
:1038100003F0030238D5002AEDD11807EBD4637802
:10382000190711D42179E278E07942EA012261791D
:1038300042EA0142A17941EA0021207A41EA0041AD
:103840008A42D8D81F2AD6D9627A013A062AD2D813
:10385000A27A032ACFD813F0040102D1023A012A36
:1038600003D8E27A012AC6D811B9A27C032AC2D8A9
:1038700013F01001227D19D0012ABCD1227E012A29
:10388000B9D8B1B91125B7E7032AC6D1B3E713F008
:10389000600FB0D103F00F0203F00703052BBED079
:1038A000931E012BBBD9002AA5D1B8E7022AE5D186
:1038B000A1E7DA071FD46378227D03F018010829F5
:1038C0001ED1022ADED11B0709D4E279A37943EA8B
:1038D0000223227A43EA0243B3F5804FD2D8BFB223
:1038E00001213846FEF734F8064678B109F060FF4A
:1038F000B8B10C2580E700F031F90028DBD1C1E731
:10390000022AE0D0A27E002ADDD0BBE701213846A2
:10391000FDF7E0FF064650B3164B93F900100BF08D
:10392000C0FD30460BF0C5FE21462870E0743046DD
:103930000BF00BFE637E0546002B3FF45DAF0028C5
:103940007FF45AAF316B02466846FEF73BF9306BA5
:103950002A46012109F02BFC316B68460422FEF750
:1039600031F9306B2A46294609F021FC44E7072546
:1039700042E700BF500B002070B50579042D8AB0D6
:10398000034658D84488B4F5804F54D82B48465D38
:10399000284400214279857AC07BADF8041042F0BA
:1039A000100242EA460242EA850242EAC00202F0FE
:1039B0001F028DF80420BDF80420ADF80D201A88F0
:1039C0008DF80F208DF81240120A240A8DF811107C
:1039D0008DF814108DF810208DF813405A7B8DF857
:1039E00015205A798DF816209A79D3F807008DF8AA
:1039F0001720B3F80B209B7B8DF81E307F238DF8AA
:103A00001F3001238DF80C1006908DF82110ADF8B1
:103A10001C208DF820308DF8223003A88DF823105B
:103A20008DF824108DF825108DF8261001A9FFF7C8
:103A3000DBFE0AB070BD1220FBE700BF64930200FA
:103A40000278034672B1427862B142881A2A09D9D3
:103A500082881A2A06D9044A006810609B889380DD
:103A600000207047122070477C0F0020024B026834
:103A70009A600020704700BF7C0F00200378A3F1FC
:103A80000A02112A9DBF024A0020137412207047B7
:103A90007C0F002008B5052000F090F803F060FBD3
:103AA000014B024A9A6008BD500B002051330000C0
:103AB00008B502F087F8FFF7FDFABDE808400148B5
:103AC00002F06AB85C0B002010B50B4C012384F89F
:103AD000023102F07FF80BF078FF0AF024FD04F2C7
:103AE00003112046FEF74AFA002009F006FBBDE864
:103AF000104000F071BE00BF5C0B002010B5064CFA
:103B0000064904F502700AF0A8FB04F503700449A5
:103B1000BDE810400AF0A1BB5C0B0020540000205F
:103B20005C00002010B5094C094904F502700AF048
:103B300094FB04F5037007490AF08FFB04F5047049
:103B40000549BDE810400AF088BB00BF5C0B0020AF
:103B50006C0000207400002064000020014B93F8EA
:103B6000020170475C0B002010B5074C00F02CFEE2
:103B7000D4F808020AF069FBFFF774FC00F09CFF20
:103B8000012384F8143210BD5C0B0020014B93F824
:103B9000140270475C0B002010B5074CD4F80C02DF
:103BA0000AF053FBD4F810020AF04FFBFFF734FC85
:103BB000002384F8143210BD5C0B0020C2080549B4
:103BC000012300F0070003FA00F08B5C18438854CF
:103BD000704700BF10000020014BD3E9000170477F
:103BE00010000020034B1868C0F30020400040F094
:103BF000010070471000002008B504F077FE084A65
:103C0000002332F82310814205D302EB83039B7813
:103C1000044A137008BD01330C2BF2D10023F7E7DF
:103C200078930200710D002010B544682388A4F831
:103C3000903194F8683084F88F11012B06D0022B54
:103C400004D040F281210620FDF76EFA84F892310B
:103C500094F86930012B01D0022BF2D184F8933112
:103C60000449022204F5C3700AF0E3FF002384F83C
:103C70003C3110BDDDE20000406808490388A0F82F
:103C8000823190F8603080F8843190F8613080F8AB
:103C9000853100F279100AF0C6BF00BFF3E20000E0
:103CA0002DE9F743456895F8973095F89680232BD2
:103CB00004460F462DD1973538460AF060FF00289C
:103CC0004DD038460AF055FF814638460AF053FF7A
:103CD00001460AF063FB6668034648B396F868201D
:103CE000904225D096F83C0101280CBF96F83E0181
:103CF00096F86400014232D0B8F1210F18D096F83E
:103D00006100014214D152B940F26D110620FDF755
:103D10000BFAB8F1210F40F0B3809635CCE7042AB6
:103D200001D0042B31D1934294BF00230123B3B9B6
:103D300048460AF033FB002849D096F869308342A0
:103D400045D096F83C31012B0CBF96F83F3196F8E0
:103D5000653019EA030F14BF01230023BBBB63685E
:103D600093F83C21012A19D11E212046FFF75CFF60
:103D7000B8F1210F1FD1FA786368182A83F821213E
:103D800010D040F26D217E20C1E7082ACBD0082B4D
:103D9000C9D093422CBF00230123C8E7002283F837
:103DA0003C21E5E7092283F8962093F8D23093BBB3
:103DB00040F27521E7E7002320462B700BF045F811
:103DC0003946204603B0BDE8F0430BF062B83046F8
:103DD00001AA39460AF0EFFAD4F804800646F8B989
:103DE00098F83C31012B18D101462046FFF71CFF03
:103DF0002E70636803F19702954202D1002283F886
:103E00009720636803F1970295424FF0000534D183
:103E100020460BF01AF8002033E088F83C01E8E770
:103E200038460AF0AAFEA8F8AC026068B0F8AC32D6
:103E3000B0F89020013B9B1A9BB247F6FD7293426B
:103E400007D9282380F8B9300F49B0300AF0EBFECB
:103E5000D7E790F897300D2B02D00A3B012B01D801
:103E60002A23EFE79DF8043080F8AE329DF8053044
:103E700080F8AF3225232B70C3E783F8D250CAE70E
:103E8000022003B0BDE8F083EBEE0000044B0022FB
:103E900083F822204FF6FF729A84DA841A857047DD
:103EA000720D0020054B9A8C824201BF002283F8DC
:103EB00022204FF6FF729A84704700BF720D0020D7
:103EC000014BD884704700BF720D0020084B998CBD
:103ED0004FF6FF72914206D193F82220012A04D0B6
:103EE000036001207047002303600020704700BF7B
:103EF000720D0020064B93F82220012A1FBF0120DB
:103F0000DA8C83F822009A8408BF0020704700BF33
:103F1000720D0020014B1885704700BF720D002004
:103F2000064A918C138D994205D192F8223013B133
:103F30000260012070470020704700BF720D002012
:103F4000094B998C1A8D914201D0002070474FF691
:103F5000FF729A8493F82220002AF6D0002283F878
:103F600022200120704700BF720D0020054B998C64
:103F70001A8D914203BF93F82200B0FA80F04009F5
:103F800001207047720D002050B90A4A13460120E3
:103F900003F8010B0868C2F801008A889A8070470C
:103FA000012805D1034B0A689A608A88D8719A81E2
:103FB000704700BF9C0D002048B90A4B187880B1AB
:103FC000D3F80120B3F805300A608B8070470128D0
:103FD00006D1044BD87920B19A680A609B89F4E72E
:103FE000002070479C0D002020B9054B187800F088
:103FF0000100704701280ABF014B0020D879F6E77D
:104000009C0D0020F7B500228B888DF80600ADF8D6
:10401000043008680C4B8DF80720019D1C78014680
:1040200003F5AC73D0B2844201D8082009E0D3E98B
:104030000076AE4208BF8F4203F1080302F101028D
:10404000F0D103B0F0BD00BFB00D002030B5094B7A
:1040500001465C78002203F58173D0B2844201D816
:10406000082005E013F8015B8D4202F10102F4D152
:1040700030BD00BFB00D0020F0B5254D95F898413A
:1040800089B0224605F29911684608F0D3F8214616
:1040900068460AF069FA0446B8B300EB4001C9B2B9
:1040A00002A8FDF7D1F9601E95F8A161C0B2012404
:1040B00095F8982105E0731CB3FBF2F102FB113374
:1040C000DEB206F120030DEB030111F8203C002BBA
:1040D000F1D100EB400220326A4406EB46032B4448
:1040E00012F8187C83F8A27112F8177C12F8162CBB
:1040F00083F8A37183F8A42101F8204C0138AB198F
:10410000C0B2FF2883F89941D2D109B0F0BD00BFF9
:10411000B00D002070B5064688B00C46002A4FD07E
:104120002A4A92F8A131D01890F8991121B94FF488
:1041300080712820FCF7F8FF03EB430111440133A1
:1041400091F8A251E57091F8A35191F8A411617111
:104150000021257180F8991192F89811B3FBF1F0C4
:1041600001FB103382F8A13192F8C23123B918490A
:1041700002F5DD700AF05AFD657905F03F0545F05E
:10418000400565710D220021684608F0C9F8E37802
:104190008DF80F3023798DF80E3004AA0423694678
:1041A00030468DF80D5007F0B1FD9DF81F3023709B
:1041B0009DF81E3063709DF81D30A37008B070BD6F
:1041C00003216018FDF740F9D6E700BFB00D0020CD
:1041D00079400000044B5A78824286BF1B1893F83E
:1041E0004A010020704700BFB00D0020044B5A78F0
:1041F000824286BF1B1893F842010020704700BF1F
:10420000B00D0020064B00224FF461711A8083F834
:10421000C32183F8C421A3F8C61183F8C2217047D3
:10422000B00D0020014B83F8C4017047B00D002091
:10423000014BB3F8C6017047B00D002030B50A4BF2
:104240005C7884420ED9184490F802012B3003EBBD
:10425000C004A5790D7053F830001060A3889380D6
:10426000012030BD0020FCE7B00D002002460748C9
:1042700010B590F8C34124B1417821B1023002F069
:1042800095FF204610BD0C46FBE700BFB00D002097
:104290002DE9F74F2F4C00921A46637883428046EF
:1042A000894654D9231893F8425185F00105E9B1A4
:1042B00093F84A31D3B945F002070135C2B9F9077D
:1042C0000BD5062101FB084104EB081001F58571AF
:1042D00082300092FFF71EFF009ABB0733D504EB34
:1042E000081049460230FFF715FF2CE02F46E5E79E
:1042F00094F8A1614FF0010A002DE0D004EB060B09
:104300009BF8991199B9009B0192D3B100F0A4FBDD
:1043100006EB460121444FEA102C81F8A201019AD4
:1043200081F8A3C1000C81F8A4018BF899A194F83D
:1043300098110136B6FBF1F001FB1066F6B2013DB3
:10434000DAE747F00407384603B0BDE8F08F0027EE
:10435000F9E700BFB00D0020074B5A78824209D917
:104360001A1892F842212AB9062202FB003000F501
:104370008570704700207047B00D0020064B5A78BA
:10438000824281BF1B1893F83A01B0FA80F04009CD
:1043900098BF0020704700BFB00D002030B500244A
:1043A000A0F85040B0F8544042F210754C43B4FBB2
:1043B000F2F4A0F85440541E05FB0343B3FBF2F3A0
:1043C000A0F85230094BB3FBF2F30133A0F8583098
:1043D000B0F84C3005FB0344436CB4FBF2F4594392
:1043E0008464B1FBF2F2426430BD00BF005A620245
:1043F00070B504460D4659BB4FF4367207F090FF76
:10440000012384F89E30492384F8E930042384F89A
:10441000EA306FF03B0384F8EB306F2384F8EC3024
:104420006FF03F0384F8ED302B2384F8E830FE234F
:1044300084F826317F2384F895301E4BC4F88030F1
:10444000202384F8EE5084F8EF5084F8943270BD45
:10445000012922D100238269A0F81E3280F813328C
:10446000154B1344B3FBF2F3C0F8C03040F6B83339
:10447000A0F8C4301146438C7830FFF78FFF0BF063
:1044800011FC30B1E069FEF719FF10B984F8FF5153
:10449000DDE7002384F8FF31D9E70229D7D1B0F84E
:1044A000BA32D0F8B4228169BDE870407830FFF7A5
:1044B00075BF00BF00E0FCFF7FC3C901034B80F85C
:1044C0006C101B680BB10088184770477C000020F7
:1044D000074B93F900301844142804DC10F17F0FC7
:1044E00003DB40B27047142070476FF07E007047C6
:1044F000780F002007B57F230DF107008DF80730F6
:1045000003F04AFD9DF9073068B10A4A50784042ED
:1045100043FA80F0142808DC10F17F0F07DB40B26B
:1045200003B05DF804FB1846FAE71420F8E76FF0D3
:104530007E00F5E7780F0020024B00221A705A70B7
:10454000704700BF780F0020054BFF221A70054A04
:10455000016811600179117100221A70704700BF63
:104560007A0F00201800002007B5064B186800904D
:104570001B798DF804306846FFF7E6FF03B05DF85D
:1045800004FB00BF21D40200437843B1C2783A2A29
:1045900007D80549885CC31A5842584170471846E5
:1045A00070470120704700BFA89302003A2908B560
:1045B000C17003D8064B5B5C437008BDFF2904D073
:1045C0004FF489612A20FCF7AFFD0123F4E700BF17
:1045D000A89302002DE9FF478A4602A9164699468C
:1045E00009F0F2FF054600283FD1039F36B90124A8
:1045F00087F89D40204604B0BDE8F087D7F81080CA
:104600003146404608F07DFB04460028F2D0194BA5
:104610005B88B3422BD3014601AA404608F0C6FC92
:10462000019B1D809D7097F89D300198002B0CBF59
:10463000514602210AF0EDF901983246494603300D
:1046400007F0F8FD3146404608F090FB044618B9E3
:104650007B212B20FCF768FD02A80AF0B1FA039B2E
:10466000A3F80A5287F89D50C4E70124C2E72C46FC
:10467000C0E700BF7C0F0020024B987DC04300F0D4
:10468000010070477C0F0020034B987D80F00200F2
:10469000C0F34000704700BF7C0F002010B5094CEC
:1046A00014220021204607F03BFE1222002104F1D3
:1046B000140007F035FE01232373231DC4E90033E2
:1046C00010BD00BF980F00207FB505460C4619B9F4
:1046D000F1211020FCF728FD03888B8000234B720A
:1046E0004669304608F054FC014608B9FA21F0E763
:1046F00001AA304608F05AFCE08008B9FF21E8E73B
:10470000FB2802D940F20111E3E701980AF089F988
:10471000012801D0022805D12072206828B94FF461
:104720008C71D6E740F21111D3E70199E288033189
:1047300007F080FD304608F041FC10B940F21D1131
:10474000C7E70021304608F075FB10B94FF49171AE
:10475000BFE70B4BDA7D82B11A8B2888013A02A998
:104760001A8309F031FF10B140F22B11B1E7039A1F
:10477000B2F8AE300133A2F8AE3004B070BD00BF65
:104780007C0F002010B520B940F21B211020FCF74F
:10479000CBFC41600272EFF3108472B6094B1A1D14
:1047A0000260596819B1097A012908BF1A601A68AC
:1047B0001060186004B962B6BDE8104093F8260096
:1047C00007F0D0BB980F0020024B83F82600FFF7BC
:1047D00065BF00BF980F0020014B024A1A60704766
:1047E00080000020C9460000F7B54F4D4F4F0646E8
:1047F0006B681B7A0C2B07D1FB7D2BB13B8B1BB954
:104800000022104603B0F0BD2B699BB11B7A8BB11F
:104810002C69002CF4D0237ADBB205222272023BF1
:104820000A2B72D8DFE803F017324671714F7171AD
:10483000717164006C68237A012BE1D0EFF310836F
:1048400072B66A6812686A6003B962B6237A002B8E
:10485000DAD02C61DFE7636823B940F2A1111020A0
:10486000FCF762FC3146204698470422EFF31083A0
:1048700072B6217A0529C8B201D000284ED1002194
:1048800021722961002B45D162B643E0636813B9F8
:104890004FF4D571E3E7314620469847C0F307232C
:1048A000012BADF80400C2B232D0022BDED10023BE
:1048B0002B612FE0636813B94FF4DA71CFE720461C
:1048C00098470022D2E763680BB9C621C7E70B22DD
:1048D00032701988A6F8031001220024B270727198
:1048E0001869B471214608F0A5FA2C61042288E702
:1048F000606810B940F2DF11B1E70D4B31461B681B
:10490000984700232B6102227BE74FF4F471A6E75E
:1049100003232372002A3FF46BAF72E7002B7FF46E
:1049200067AF62B664E700BF980F00207C0F0020DD
:10493000800000200448037F23B904490222143078
:104940000AF065B9704700BF980F002001EC000025
:104950001B234FF01B128384038482618382C26015
:10496000038539B94FF4A473034AC3844384C261F5
:10497000C3820261704700BF48014801B0F854206B
:104980000B46B0F848109142F0B528BF1146B0F878
:104990004C40B0F85620B0F84450C78FB0F8426091
:1049A000C187A24228BF2246B0F84640A0F8422064
:1049B000944238BF14468D4238BF0D468F42A0F84E
:1049C0004450A0F846402ED1B61A18BF0126B0F8C0
:1049D0004A50B0F85040B0F852E0B0F83CC0B0F8DF
:1049E0004070A54228BF2546B0F84E4085877445E3
:1049F00028BF7446AC45A0F8404002D1A74200D180
:104A00009EB10088A3F80900A3F80B50A3F80D404D
:104A1000A3F80F10A3F81120BDE8F04003490222CB
:104A200018460AF006B90126D1E7F0BD45EC0000B2
:104A30000B8BA2F80B304B8BA2F80D308B8BA2F8AE
:104A40000F30CB8BA2F809000249A2F811301046B2
:104A50000AF0E9B885EC0000094AD2E900034340B6
:104A600083EAB01181EA43214FEAF3435360054BD7
:104A7000116058434FEAF06000EB8000704700BFC0
:104A8000C00F0020BB79379E094AD2E90203434098
:104A900083EAB01181EA43214FEAF343D360054B27
:104AA000916058434FEAF06000EB8000704700BF10
:104AB000C00F0020BB79379E38B50A4C04F10805B9
:104AC00008212846FCF7C0FCD4E902231343F7D0A1
:104AD000FFF7DAFF2060FFF7D7FF2368606003432A
:104AE000F6D038BDC00F0020174B184A9A60184AFC
:104AF0005A60184A1A60184A9A62184ADA62184AC2
:104B0000DA60184A9A61184A1A63184A1A62184AEF
:104B1000DA64184A9A64184A5A62184B184A9A601A
:104B2000184A5A62184ADA62184A1A61184A5A61CF
:104B3000184A9A61184A1A63184A9A64184ADA6439
:104B4000184A9A63704700BF8400002051EF0000AC
:104B5000894D0000F54D0000EBF00000BDF10000B4
:104B600037F10000D3F10000B1500000494F0000C0
:104B7000BFF20000E7F20000A14F0000700100202A
:104B80007DEF00007FF20000F5F10000AD4E000067
:104B900019F20000E54E000063F300001FF300006F
:104BA0000DF3000059F20000044B054A5A65054B0D
:104BB000054A1A65054A5A65704700BF84000020FF
:104BC000E9EF000070010020C3EF000061F0000079
:104BD000054B064A9A65064A1A66064B064A9A65C6
:104BE000064ADA65704700BF840000204DE40000EB
:104BF000A13C00007001002077E30000F5E4000014
:104C0000252A70B505460C4618D8012A19D9023A4A
:104C1000232A16D8DFE802F01A1525242433153587
:104C2000152439444815154D242467676D741515EE
:104C3000151515151515151515808990FF2A00F005
:104C4000828040F2D6315120FCF76EFA0278436838
:104C5000012A02D193F8283101E093F83131237110
:104C600070BD4168204601F50A7109F044FF69688A
:104C7000204601F50C71BDE8704009F03EBF436865
:104C8000E8E7BDE8704000F0F7B90D230B71592338
:104C90004B7100238B71FB23CB7111230B72DFE768
:104CA000436893F82231DAE7BDE87040084600F027
:104CB000D1B90378466873B996F828315BB196F894
:104CC0002511204609F06AFF96F824112046BDE818
:104CD000704009F067BF96F82311204609F05EFF87
:104CE00096F82211F2E741682046BDE870400AF0CC
:104CF000E4B8436893F83E21227193F83F3109E00C
:104D0000436893F83C21012AF4D093F864200A7197
:104D100093F865306371A3E7104B1B68002B9FD09D
:104D200002462320BDE8704018470C4B1B68002B3F
:104D300096D002462420F5E7084B1B68002B8FD045
:104D400002462520EEE74368204693F8A722D3F8D1
:104D5000A812BDE8704009F068BE00BF5C020020E8
:104D60003A289ABF024B53F820000020704700BF3A
:104D7000840000203A289ABF024B53F820000020FC
:104D8000704700BF7001002070B5044640680D46B2
:104D900090F8972001230021783009F022FC20B3FD
:104DA0002846666809F08AFEA6F8AC026068B0F88A
:104DB000AC32B0F89010013B5B1A9BB247F6FD7124
:104DC0008B4208D9282380F8B9300949B03009F05E
:104DD0002AFF002070BD00F2AE21284609F069FECE
:104DE00063680A2283F89720F3E70120F2E700BF07
:104DF000EBEE000070B5054640680C4690F8972031
:104E000001230021783009F0ECFB002849D0002173
:104E1000204609F021FE28B921462846BDE8704009
:104E20000AF037B86868B4F80D30B0F89020A0F8F0
:104E3000AC32D24313449BB247F6FD72934208D979
:104E4000282380F8B9301849B03009F0ECFE002072
:104E500070BD204609F0F7FD6E6840F2E242504313
:104E6000C6F8B4022379C3EB431103EB810303EBD0
:104E700083035B00A6F8AE32B4F805305343C6F89E
:104E8000B032204609F0E2FDA6F8B80220466E686E
:104E900009F0DFFD6B68A6F8BA020D2283F89720AF
:104EA000D5E70120D4E700BFEBEE000008B540686D
:104EB00090F89730152B04D04FF492711F20FCF717
:104EC00033F9012380F8D730162380F89730BDE8F6
:104ED00008400349022200F52F7009F098BE00BF78
:104EE000C3F0000038B5436893F897201C2A0446A5
:104EF00004D040F271111F20FCF716F993F8D81076
:104F00001D88002283F8D72003F5F97071B10C4990
:104F100083F8D82083F8FB21A3F8FC51022209F082
:104F200076FE6368002283F8972038BD012283F85B
:104F3000FB1183F8FE210349A3F8FC510222EEE79E
:104F4000AFF0000097F00000436830B5D3F8884018
:104F500014F001001FD14D68104A8968A3F8D400ED
:104F60002A40C3F8E820C2F3076242F0080221F4A5
:104F70001E5121F0100183F8EB2093F8D62009048C
:104F8000090C013244F00104C3F8EC1083F8D62078
:104F9000C3F8884030BD0120FCE700BF2F4904F76B
:104FA00070B54468037894F896200D4604F17800B3
:104FB000072109F016FB80B36968AA68194B22F42F
:104FC0001E520B40C4F8E83022F01002C3F307630E
:104FD00043F008031204120C84F8EB300023C4F8E9
:104FE000EC2084F8D23084F8963094F89C2102F0BA
:104FF000FF06A2B92388A4F89E3184F89D616B68EE
:10500000C4F8A031AB680849C4F8A431022204F501
:10501000CA7009F0FCFD304670BD0126FBE71E4654
:10502000F9E700BF2F4904F737F20000406890F815
:105030009C315BB90388A0F89E311A2380F89D311A
:105040000349022200F5CA7009F0E1BD704700BFB4
:1050500037F2000010B50446FEF7BEFD21F41E51E4
:10506000044B21F0100109040340090C6360A160A6
:1050700010BD00BF2F4904F737B50C464568FEF751
:10508000ABFD0A4B95F8E82021F41E5121F01001E8
:10509000034009040093090C13408DF8003001917E
:1050A0006B4603CB6060A16003B030BD2F4904F7AD
:1050B00038B54468037894F896200D4604F17800DA
:1050C000082109F08EFA18B9D4F88830980744D42A
:1050D00094F8D93099071DD4284609F011FD84F8B9
:1050E000E300B5F80530A4F8E430B5F80730A4F8CB
:1050F000E63094F8D93043F0020284F8D920DA0778
:1051000002D494F842312BB11549022204F1DA009D
:1051100009F08FFD94F8D930DB0713D4D4F8883028
:1051200013F0020203D056214020FBF7FDFF43F0AD
:105130000203C4F8883094F8D630A4F8D4200133A0
:1051400084F8D63094F89630012B4FF0000003D14C
:1051500084F8960084F8D20038BD0120FCE700BF37
:1051600045F30000044B9B685843C3F580534B4301
:1051700003EB2030704700BFD00F002070B54568AA
:10518000044602F083FB85F88700FFF7B3F97F2818
:10519000014685F895000ED0D5F88000FFF7E2FFB4
:1051A000054BC5F880001B7B2BB1044B20461B68C8
:1051B000BDE87040184770BDD00F00206402002089
:1051C000014B1B68184700BF60020020F0B5204D5E
:1051D0002B7800241470CBB3013B6F68DBB21D1B2E
:1051E000012D0BDC07EBC40557F834606D688D4268
:1051F00008BF864212D114700120F0BD1D196E1037
:1052000007EBC60E57F836C0DEF804608445C5F3D8
:1052100047058E412CBF2B462C46E0E7B04271EB90
:10522000050502D214700020E7E707EBC30457F826
:10523000335064688C4208BF854201D11370DBE7AC
:10524000A842A14128BF01331370ECE71846D4E708
:10525000E00F002010F0070208B503D063214820BA
:10526000FBF762FF18B1034B197258601A70C8003F
:1052700008BD00BFE00F0020014B00221A707047EC
:10528000E00F0020014B187A704700BFE00F0020AC
:105290002DE9F7430AF097F80DF1070206460D468F
:1052A000FFF794FF98B910490A780B7A93420ED011
:1052B0004C6813466FF060479DF80700984209D389
:1052C00004EBC003C3E9006501320A70012003B09A
:1052D000BDE8F083D81904EBC000D0E90089013B98
:1052E000C0E90289DBB2E7E7E00F002037B50AF03A
:1052F0006AF80DF10702FFF769FF0446A0B10C4AF6
:105300009DF8070013785568013BDBB213701A1A39
:10531000D2B2411CD200834238BF002205EBC1014A
:1053200005EBC00006F042FF204603B030BD00BFD1
:10533000E00F002038B5074D044600F15101286800
:1053400009F0DDFA94F850102868BDE8384009F0FB
:10535000E4BA00BFEC0F0020F8B504460E4665889D
:10536000407F15F0040508BF2946134618BF04F115
:105370005F013246FEF78CFFC20705460BD50123BD
:1053800084F85030607FFEF7E7FF0368C4F85130BF
:105390008388A4F85530AB070CD5094E0127306837
:1053A00084F85E7004F15F0109F0B0FA30683946A4
:1053B00009F0BCFA85F00400C0F38000F8BD00BF1E
:1053C000EC0F002038B5C38D0E4D0133C385AB7C87
:1053D00004462BB102F0D2FD01F01AFF0023AB749A
:1053E00000232B7194F871302BB101212046BDE8C8
:1053F000384008F093B9637C13B1E28D9A42F4D23D
:105400000021F3E7EC0F002070B5294C2379012B24
:1054100007D02379022B04D040F6E2412D20FBF780
:1054200083FEA0B90125A37C1BB102F0A7FD01F00A
:10543000EFFE002D3AD0E06908F0E8F8002830D0FF
:1054400002F0ACFB236ABDE870409B6818472168F6
:10545000E26911F8095B02F15103E80992F8502062
:1054600009F064F80028DDD02068002109F083FAF3
:105470000028D7D02379E069012B05D02379022BAE
:1054800002D040F6BB41C9E72379226A03F1804389
:105490005269013B05F00F0152F823309847054649
:1054A000C1E7E069BDE87040FFF78CBF70BD00BF89
:1054B000EC0F002010B5134CA37C1BB102F05EFD75
:1054C00001F0A6FEE06908F0A1F870B12379E06967
:1054D000012B0FD12379226A03F18043D268013B6B
:1054E000BDE8104052F823301847E069BDE810408D
:1054F000FFF768BF2379022BECD040F6E7312D206F
:10550000FBF712FEEC0F002018B1084BD869FFF72B
:1055100059BF51B1054A1379116AD069096903F17C
:105520008043033B51F8233018477047EC0F0020AD
:105530002DE9F043032985B0054690467ED090F8CA
:10554000703003F0FF02002B7DD1052904D16B8858
:10555000D8075FD5002A5DD10127DFF8F09099F8D0
:105560001260B6B109F017F8082888F8000014D0C6
:1055700002AA0DF10701FEF761FE20B940F6427163
:105580002D20FBF7D1FD9DF8070002A909F027FFA8
:10559000064698F80030082B08D1D9F8001011F809
:1055A000030BC0F3801009F01AFF0646D9F800106B
:1055B00095F8572011F8030B05F15803C0F380103C
:1055C00008F0B4FFD9F80010044611F8030BC0F33B
:1055D000801008F0D6FF8146FEF7D0FE40B1B9F149
:1055E000080F1CD04846FEF7F5FD80F00100C0B260
:1055F00098F80020082A16D09CB96B7F991A4B4264
:105600004B416A88520706D420B99EB9EB7C9BB106
:10561000BB4211D00023184605B0BDE8F08300203E
:10562000E6E70123EDE714B180F00104E4B204F0F1
:105630000103E6E73346EEE70123ECE743889B07E7
:10564000E8D5022789E70529E4D180E7EC0F00209F
:105650002DE9F04F85B008230DF10702052104461E
:105660008DF80730FFF764FF064620B90026304664
:1056700005B0BDE8F08F7D4D2968EA7C11F8030B79
:1056800005F11403C0F3801008F050FF074600280E
:10569000ECD12B68216A184691F89E2010F803CBB4
:1056A00002EA5C1202F0010281F89E20D3F8032086
:1056B000C1F803208288A1F807201A46216A12F84F
:1056C0001F0BC0F38010887012798DF80C20D3F86E
:1056D0000F20D3F81F00CA615A7D0290187D120472
:1056E00042EA0022D87C02434A62B3F8192040F211
:1056F000E24808FB02F28A619A7DC2EB421002EB9B
:10570000800202EB820252008A85B3F8172008FB60
:1057100002F28A62B3F81B200A84B3F81D204A847F
:1057200093F8243003F01F0381F8AA30D4F82090B6
:1057300094F912B002A909F19E0009F036F82B681D
:1057400093F824305B0989F8003240F20113A9F87C
:1057500068304FF0FF0A89F86AA0394609F1300035
:10576000FFF7F6F859464846FEF7A8FE236A84F884
:105770007B701A88A4F87C2084F899A04FF6FF72F9
:10578000A4F89A209A69B2FBF8F2A4F892201A8C35
:10579000A4F894205A8CA4F8962093F8002284F858
:1057A0009820227F9DF8070004F186015AB394F8EF
:1057B0005020012A27D194F8562002F0C002402A36
:1057C00021D1D4F85120C4F88620B4F855208A801D
:1057D0009A7884F87F20082803F1030704F18002F7
:1057E000D3F8033004F18C0136D0C4F88C30BB8878
:1057F0008B8004F17F01FEF721FD40B94FF4446135
:105800002D20FBF791FC0022C4F88620DFE794F8F6
:105810007F3043F0020384F87F301549022204F1FF
:10582000720009F0F4F9236A12491A88A4F8B32027
:1058300093F89E3084F8B530022204F1AA0009F0F2
:10584000E6F90D4B206A1B6800222A71002B3FF4F9
:105850000EAF214698470AE7C4F88030BB88938092
:105860000023C4F88C308B80D7E700BFEC0F0020FA
:1058700021F40000F3F300006C020020032973B54B
:10588000044604D0052953D0012002B070BD08237E
:105890000DF107028DF80730FFF74AFE0028F3D01C
:1058A000237C284D0BB39DF8070094F8BE30E3B974
:1058B000237884F8BF30082804F1C10229D004F10C
:1058C000C001FEF7BBFC20B940F6BF712D20FBF7ED
:1058D0002BFC94F8C03043F0020384F8C0301A491E
:1058E000022204F1B60009F092F92B680622042680
:1058F0005A701E702046FFF71DFD94F84020E16BA2
:10590000286809F029F828682E7102F0C9FA0020E9
:10591000BBE72868034613F8031BC1F3801184F822
:10592000C010D0F80310C4F8C1109B889380D6E74C
:10593000064B1B6823B1984780F00100C0B2A4E772
:105940001846A2E7EC0F002009F4000068020020CE
:105950002DE9F04104460E4619B300F1280528460A
:1059600009F058FFA0B963881A072ED5284609F018
:1059700068FF0746284609F04DFF381AC0B209F003
:1059800070FF544A936818449060284609F01EFF3F
:10599000284609F020FF02F0BFF82179252001F008
:1059A000BFFF4C4D94F85E202868002303704370BD
:1059B0006388103B0D2B57D8DFE803F052564E0C8E
:1059C000563956565656565656392046BDE8F04179
:1059D000FFF7F8BC06234370202303702046FFF72F
:1059E000A9FC638823F008039BB2152B05D094F81B
:1059F0003820616B286808F0A0FF286802F050FA90
:105A000003232B7136B16388102B32D1217900200A
:105A100002F088F86388103B0D2B56D8DFE803F0BE
:105A200058554F4F554F555555555555554F0C23B6
:105A300043702123037042B104F15F0108F066FF57
:105A40000121286808F072FFC8E704F1580108F046
:105A50005DFF94F85710F4E7062303704370BDE729
:105A6000022303700623F9E740F255612D20FBF76E
:105A70005BFB04F128084046EF6809F0E2FE0646A9
:105A8000404609F0C7FE013E301A61882822C0B2A4
:105A900000F03EFA63881B07074406D5AB681F4435
:105AA00009F0DCFE3844C4F8D800227939460020D9
:105AB00002F06CF90028ADD140F65751D6E72179B4
:105AC0000120BDE8F04102F073BA40F66B51CDE71A
:105AD000BDE8F081EC0F002038B54388102B044658
