:020000040000FA
:1000000040440020A12100005D5900008D21000026
:100010008D2100008D2100008D21000000000000D6
:100020000000000000000000000000007D22000031
:100030008D210000000000008D2100008D210000B6
:10004000E9230000E9230000E9230000E923000080
:10005000E9230000E9230000E9230000E923000070
:10006000E9230000E9230000E9230000E923000060
:10007000E9230000E9230000E9230000E923000050
:10008000E9230000E9230000E9230000E923000040
:10009000E9230000E9230000E9230000E923000030
:1000A000E9230000E9230000E9230000E923000020
:1000B000E9230000E9230000E9230000E923000010
:1000C000E9230000E9230000E9230000E923000000
:1000D000E9230000E9230000E923000053B94AB9ED
:1000E000002908BF00281CBF4FF0FF314FF0FF3040
:1000F00000F00CB8ADF1080C6DE904CE00F008F882
:10010000DDF804E0DDE9022304B07047704700BF6A
:100110002DE9F04786468C460846089E15467446EB
:100120001946002B40F0C2808542B2FA82F245D9CE
:100130004AB1C2F1200300FA02FC2EFA03F3954003
:1001400043EA0C0C94404FEA154EA8B2BCFBFEF8F3
:10015000230C0EFB18CC08FB00F943EA0C4399452D
:1001600028D9EB1808F1FF3704D2994502D9A8F134
:1001700002072B44A3EB0903A4B2B3FBFEFC0EFB66
:100180001C330CFB00F044EA0344A04214D92C19A0
:100190000CF1FF3304D2A04202D9ACF102032C448B
:1001A000241A43EA07401EB1D44000233460736030
:1001B000BDE8F0874746DDE76346F1E792BB431BA6
:1001C00001214FEA154EAFB2B3FBFEFC200C0EFB33
:1001D0001C330CFB07F840EA0343984562D9EB183F
:1001E0000CF1FF3004D2984502D9ACF102002B4447
:1001F000A3EB0803A4B2B3FBFEFC0EFB1C330CFB09
:1002000007F744EA0344A7424ED92C190CF1FF33F7
:1002100004D2A74202D9ACF102032C44E41B43EA06
:100220000040C0E7C2F1200320FA03F1954090405E
:100230002EFA03F303434FEA154EAFB2B1FBFEFCB7
:100240000EFB1C10190C0CFB07F841EA0041884515
:1002500004FA02F422D969180CF1FF3004D288455F
:1002600002D9ACF102002944A1EB08019BB2B1FB19
:10027000FEFC0EFB1C110CFB07F743EA01439F42F7
:100280000ED9EB180CF1FF3104D29F4202D9ACF128
:1002900002012B44DB1B41EA004192E76046E3E7A1
:1002A0006146F7E76046A3E76346B7E7834206D9AE
:1002B00016B9002108467BE7C6E900E0F9E7B3FA82
:1002C00083F78FB9834201D3724508D8BEEB02048D
:1002D00060EB030301209C461EB9002168E7384605
:1002E000FAE7C6E9004CF8E7C7F1200CBB4022FA58
:1002F0000CF41C432EFA0CF120FA0CF3B840014325
:100300004FEA14490EFA07F5B3FBF9F81FFA84FE19
:1003100009FB18300B0C08FB0EFA43EA00439A4520
:1003200002FA07F240D9E31808F1FF3004D29A45E7
:1003300002D9A8F102002344A3EB0A0389B2B3FB5C
:10034000F9F809FB183308FB0EFE41EA03418E451C
:100350002CD9611808F1FF3304D28E4502D9A8F1D7
:100360000203214443EA0040A0FB0298A1EB0E01E6
:100370004145CE46434602D306D14D4504D2B9EBA2
:10038000020E68EB04030138002EA6D0B5EB0E0276
:1003900061EB030101FA0CFC22FA07F34CEA0303B8
:1003A000F940C6E9003198E74046C5E74346D9E73A
:1003B000F0B52E4B2E4AC3F800262E48C3F804266B
:1003C00085B0C3F808264921C3F80C26C3F81026C7
:1003D000C3F81426C3F81826C3F81C2605F038FA0B
:1003E00003F0B0FF01A800F091FC234B1B6883428F
:1003F00004D02248452105F02BFAFEE7039A204855
:10040000492105F025FA1F48492105F021FA4FF44A
:100410004041002005F08BFC044620B11A484521DC
:1004200005F016FAFEE769469DF8080000F030F87E
:10043000009B039D1D44019B1E8902F077FEAF19AE
:1004400001F06AF901F03EF901F0D4FEAB5983F3F3
:10045000088884F31488BFF36F8FBFF36F8F7B68B6
:1004600098470A48452105F0F3F9FEE700000140EE
:100470003546526E0066000030010020196600000B
:100480003C6600006B66000090660000C3660000DA
:1004900008B5024638B105480023452105F0D8F9D2
:1004A0006FF0150008BD0860FCE700BFE6660000BD
:1004B00021B1012906D06FF015007047044B53F8A5
:1004C00030007047024B03EBC0035868704700BF11
:1004D000A86200002DE9F04FD9B0DDE96489DFF8AA
:1004E000D4A1669FDAF8005038A816461C4601F0E1
:1004F000BDF8B8F1000F07D0B9F1000F04DD4A468E
:10050000414638A805F037F833897289D6F80CB01F
:1005100013449B444FF00008C3453AD838A90CA8AF
:1005200005F04FF827B120220CA9384605F067FAEC
:100530000023009322464FF6FF73314606A803F0CE
:1005400002FF804610BB20460B9E00F07BF98642DE
:100550001CD8DFF864914FF0FF370DF1120304AAA5
:1005600005A906A803F03DFF00280FDB40F09A80A4
:10057000059906A803F081FF10BBBDF812004F4A91
:100580004FF6FF7132F8023B8B4217D1DAF8005078
:100590008CE0639B629AABEB0809994528BF9946AA
:1005A0004B464146204605F061F90028EED162999C
:1005B0004A4638A804F0DFFFC844ADE79842E1D1CD
:1005C000BDF81230102B17D1BDF81060202EDDD1F0
:1005D0000599334638AA204605F048F90028D5D1B8
:1005E000324638A90CA803F082FF354B1B688342C2
:1005F000CCD14FF00108B0E7012B32D1BDF810305B
:10060000202BC3D8059938AA204605F02FF90746B4
:100610000028BBD19DF810B0BBF1200F02D94FF0DC
:10062000FF379AE7D9F80030264E0393039B9F4289
:10063000F5DA1CA801F01AF8726856F8081B12685F
:100640001CA804F098FF1CA914A804F0BAFF5A468D
:1006500038A914A805F0C3F900283FF47EAF01378C
:10066000E4E7222B7FF479AF7B1C3FF476AFD9F817
:100670000030BB42D3DDBDF81030802B86D8059901
:1006800038AA204605F0F2F800287FF47FAFFFB2C9
:10069000BDF81030009738AA20210CA800F014F8FB
:1006A0000546BCE7B8F1000F3FF470AF284659B0DB
:1006B000BDE8F08F04000020B0620000D4650000A7
:1006C00030010020B46200002DE9F04798B01646D2
:1006D0001D469DF88020394BDFF8E48053F8321036
:1006E000039103EBC20307465B68D8F800901868D3
:1006F00004AA0144302303A804F0F5F8002849D1E6
:10070000DDE903431C4405AA08AB214603A804F015
:1007100012F900283ED1069A072A3BD129490798A9
:1007200005F05DF9002835D1099A082A32D1264909
:100730000A9805F054F968BB04AA214603A804F0FE
:10074000E6F838BBDDE903A30AEB0302944221D1AA
:10075000412B1FD13544302305AA294604A804960D
:1007600004F0C1F8A0B9DDE9043213449D420FD36F
:100770002A4604A908A803F08EFE48B92A4604A90F
:1007800010A803F088FE18B99AF80030042B05D0A1
:10079000D8F80090484618B0BDE8F08700F07AFE1F
:1007A00008AB0090202239460AF1010004F080FDD8
:1007B0000128EDD1054BD3F80090EBE7B4620000BF
:1007C00004000020156700000C67000030010020C5
:1007D000094A0B78400052F820108B4209D00130B2
:1007E00052F82000834214BF4FF0FF304FF4C07026
:1007F00070474FF4C0707047BC6200001FB50F4BCC
:1008000013F830000C4601F00DFB50B920688168E8
:1008100010236A46103905F029F828B1206805F040
:1008200024F84FF0FF3006E005491022684605F035
:10083000D6F80028F2D104B010BD00BFBC620000A1
:10084000F065000013B5044603F058FE6A46014601
:10085000204603F05EFD30B10448452104F0F8FF66
:10086000002002B010BD0098FBE700BF1D6700002C
:100870002DE9F041364B88B0064600200D461C6835
:10088000FFF716FE06A9C0B201F0CCFA002858D135
:100890002946FFF70DFE2C2407A9C0B204FB05640E
:1008A00001F0C0FA002833D02C276F4306EB07086D
:1008B000069BD8F8101011F0100138D14FF4807257
:1008C0000192244A0092CDE9031122460291084682
:1008D000FFF700FE0446204BF25906989A420CD1CD
:1008E000D8F80C20B8F808309B1806D282689342DA
:1008F00003D21A4B1B68A34220D035B38268002173
:1009000004F0DEFF164A1748452104F0A1FF13E06A
:10091000079804F0F0FF0746079804F0A6FF631E4F
:10092000E21C13F8011FB942BED19342F9D11DB1A7
:100930000699304603F0CCFE0B4B1C68069804F079
:1009400094FF204608B0BDE8F081084ADBE700BF0D
:1009500004000020D40E00203DB8F39630010020A2
:10096000606700006A670000000000205867000010
:100970007FB50D46044600212846CDE9021103F05B
:1009800066FE28B32368194EB34203D103AA20465A
:1009900003F0F2FDE36AB34204D102AA012120462A
:1009A00003F0EAFDDDE90232934288BF0393039B23
:1009B000AB60039A2946204600F0A8FB0C4B1A684E
:1009C000002A03DD0B48572104F042FF04B070BD3C
:1009D00001A9FFF713FF019805F1080103F099FD44
:1009E000AB680198039304F040FFE2E73DB8F3964B
:1009F000940D0020926700002DE9F84FDFF870B0E9
:100A00001C4C1D4D884691469A4600260B9B9E42E3
:100A100001D300200FE00B9B154A9F1BB7F5806F99
:100A200028BF4FF480673B4606EB0A01404604F0BE
:100A30001DFF10B10120BDE8F88F0A993B465A46C8
:100A40007118484604F027FF0028F3D1C4F8005677
:100A50003E44C4F80456C4F80856C4F80C56C4F80A
:100A60001056C4F81456C4F81856C4F81C56CDE7EE
:100A700034090020000001403546526EF0B5994B14
:100A800043620E46984B0365002189B00446084630
:100A9000FFF70EFD04F120010546C0B201F0C2F9D6
:100AA0000346E8B90121FFF703FD04F14C010546B7
:100AB000C0B201F0B7F90346E0B9204603F09DFD4E
:100AC0000546C8B900221146204603F03FFD054601
:100AD00060B386480022572104F0BAFE01239CE04F
:100AE0000022CDE90023824800232A46452104F054
:100AF000AFFEFEE70122F4E77E488022572104F092
:100B0000A7FE01239D4284F85830DBD194F8583079
:100B10008DF81730042B00F28380012B00F28780C0
:100B200000F09A80FF2384F8583095E0204600F0CA
:100B3000FFF90028D2D004A803F080FD014620462A
:100B400003F01BFE18B16C482A465721C4E704A8DD
:100B500003F07DFD80F0010104AAC9B2204603F034
:100B6000F5FC02460028B4D104A803F070FD054648
:100B700060BB04A92046FFF7FBFE9DF8173084F800
:100B80005830033B012B06D8284600F0E5F810B199
:100B9000FF2384F858309DF81730023B022B0BD806
:100BA000002000F0C3F838B1FF2384F858305348D0
:100BB000452104F04DFEFEE794F85830FF2BF6D0A7
:100BC00004AA0021204603F0C1FC87E79DF81770B6
:100BD000012F17D1104602F037FB831E022B05466A
:100BE0000DD839462046FFF743FE454B1B68984217
:100BF00005D0444B1D68A84214BF0525012584F883
:100C0000585083E701212046FFF732FE3C4B1B681A
:100C100098420CBF9DF81730052384F8583075E7CB
:100C2000052B7FF47FAF002000F096F811E004A9B7
:100C30002046FFF79DFE94F85830DA1E012A14D89A
:100C4000002000F089F800287FF46CAF002000F04D
:100C50006DF800287FF466AF94F85830FF2B07D169
:100C60002648452104F0F4FDFEE7022BF4D1EDE720
:100C70000022012B244D039214D01146204603F08C
:100C800065FC78B12D68102200210DEB020004F004
:100C9000C1FEE06C04F0E9FD206A04F0E6FD2846A0
:100CA00009B0F0BD00212046FFF7E2FD144F3B687C
:100CB0009842E7D12B689842E4D0124B1B689842C7
:100CC000E0D0039B01330393039B012B00D0FEE78D
:100CD000206A03F01CFB3071236A5B6834603D6856
:100CE000B360D0E7340500203401002050680000D4
:100CF000C16700000E6800007C680000A668000064
:100D000030010020000000200400002038B5064D0E
:100D1000044660220021284604F07CFE2146284635
:100D2000FFF7ACFE38BD00BF340D002013B5094BF2
:100D300001A913F8300001F075F848B9019805F0E1
:100D4000E4F80446019804F090FD204602B010BD7E
:100D50000124FAE7C46200001FB50F4B01A913F884
:100D6000300001F05FF8A8B9019802A902F016FA64
:100D7000044668B99DF80B30032B03D1019805F0A8
:100D800092F80446019804F070FD204604B010BDAE
:100D90000124F7E70124F8E7C46200002DE9F341DC
:100DA00006460C4617461D460BB9002628E0184695
:100DB00003F04DFC0028F8D16946FFF71FFD0098AD
:100DC00038B90124009804F050FD204602B0BDE877
:100DD000F08101A903F09DFB0028F2D1009804F0F6
:100DE00044FD3046019903F015FD736A5E686B7926
:100DF000012B21D1002CD8D12B68834298BF00262B
:100E000021460020FFF754FB6946C0B201F00AF802
:100E10000028D6D1009820233A46314604F026FD1A
:100E200004460028CDD1002DCCD03C680D4BE41AEF
:100E300018BF4FF0FF34C5E7022BB6D12B68012B4A
:100E400005D98342B1D8B4FA84F46409ADE7ACD1D2
:100E5000002CD5D0012CA8D12C79023C18BF01243C
:100E6000A3E700BF3DB8F3962DE9F04F074685B0E4
:100E70000C46014600201646FFF7AAFC051E50DB73
:100E80003846E46D03F03AFB5FFA84F96B1E09FB08
:100E900003084FF0000A4FF0010B4FF0FF349DB9EB
:100EA000BAF1010F03DD2148452104F0D1FC631C98
:100EB00006D07F2C2ADC013440F201133460B38069
:100EC000284605B0BDE8F08F6B1E00930DF10F02B0
:100ED00001234146384604F0C9FC031E019322DB7E
:100EE00001220DF10F01384604F078FF019B40B15B
:100EF0005B4501D00AF1010A009DA8EB09089B4659
:100F0000CDE7B4F1FF3F08BF2C46F5E70223803C54
:100F10007371631004F001040133013433603471E0
:100F2000CEE70725CCE70125CAE700BFB26800007D
:100F300070B5866A456D044603F05BFCAE420AD08C
:100F40006B1CB34207D0834205D01448572104F0EC
:100F50007FFC002070BD802E1CD911485721F6E778
:100F6000626A216D02EBC30201EBC301526849685A
:100F7000914202D00B485721E9E701339D42EFD15E
:100F8000AE4205D9636A03EBC5035B689342F1D1B6
:100F90000120DFE700231A46F0E700BFD568000014
:100FA0000D6900003C69000000B589B004A9022069
:100FB00004F086FF9DF81020012A41D0254B2649D8
:100FC000032A08BF0B469DF8132002929DF81220B9
:100FD00001929DF81120214800924921204A04F0F5
:100FE00037FC06A9052004F06BFF9DF81820012AA4
:100FF00028D0184B1849032A08BF0B469DF81B2020
:1010000002929DF81A2001929DF81920009213482F
:10101000144A492104F01CFC9DF81030012B13D117
:101020009DF81230032B0FD19DF81830012B0BD0F7
:101030000D48492104F00CFC022009B05DF804FBC6
:101040000A4BC0E7094BD9E70948492104F000FCE5
:101050000020F2E7686900007169000085690000FE
:1010600077690000C6690000D66900006C6900005D
:10107000F569000070B54B6814461E4A03F0FF2363
:10108000934286B006460D462FD10B68012B2CD11A
:1010900004A9204602F082F89DF81020012A26D0EB
:1010A000154B1649032A08BF0B469DF813200292E0
:1010B0009DF8122001929DF8112000921048114ACB
:1010C000492104F0C5FB9DF81030032B0DD12146BA
:1010D000304603F0FDFA204604F0E5FEA9682046FC
:1010E00003F025FA204602F039F806B070BD064B31
:1010F000DBE700BF000100046869000071690000BF
:1011000085690000C66900006C6900002DE9F04F98
:10111000164689B005460C467448492104F098FBF0
:101120003146284603F076FB6B6A824620465E68AD
:1011300003F08DFAE8B1E86D03F0DBF9AF6A002344
:10114000013F3344834201D2013FFAE7BA4510D34D
:101150006748572104F07CFB07FB06F365480AFB50
:101160000662572104F074FB0123E37109B0BDE866
:10117000F08F06A9022000F055FE07A9052000F017
:1011800051FE079A21462846FFF774FF6379012B29
:101190004BD1DFF864B1574641E02268C2F1010348
:1011A00053449F423AD86B6A196853F8370003EBEF
:1011B000C703012A53F8083CA3EB0103A0EB010984
:1011C000049311D1079B0393E368022B08D0414697
:1011D000284603F07DFA22464146284603F0AEFA3F
:1011E0000399284603F074FA32464946404603F014
:1011F0006DFA049B42464146CDE900962846FFF72A
:10120000FBFB2146284603F02FFA236801332360B5
:1012100020B1DBF800300133CBF80030013FDDF8BE
:101220001880002FB9D101232360022363710127A5
:10123000BA45DDF8189006D2484604F016FB079828
:1012400004F013FB92E723689F424DD36A6ADDF8EE
:101250001CB052F837100491FB00083B1168039151
:10126000D1582A6DD0581368A0EB03082379012BBD
:1012700038D1039B3246C91A4846059103F026FA35
:101280000599009143464A46594601962846FFF77C
:10129000B3FB2146284603F0E7F90223237118B176
:1012A000154A13680133136032464146584603F02D
:1012B0000DFADDE9032349469B1ACDE900865A461B
:1012C0002846FFF799FB2146284603F0CDF923680D
:1012D000013323600123237130B1074A13680133BE
:1012E000136001E0022BDFD00137A1E70C6A000098
:1012F000356A0000646A0000940D00200A4619B1A6
:10130000024B00211B681847704700BF08000020EF
:10131000F0B5082289B003F04AFCCB6A03930B6B4B
:1013200004934B6B05938B6B0693CB6B0793134620
:101330006A460C460646002711461046CDE901775D
:10134000009703F042FB31460546304603F03DFB73
:10135000216B0391616B0491A16B0591E16B0544D5
:10136000CDE906171046114603F02FFB3146054420
:10137000304603F02AFB0544206A0090606A019021
:10138000A06A0290A06B0690E06B07903046CDE912
:101390000477039703F019FB0544606A0090A06A84
:1013A000D4F838C00190E06A0290CDF810C0606BAC
:1013B000D4F83CC00390CDE905C0206A07903046C0
:1013C00003F003FB0544E06A0090206B0190606B22
:1013D0000290206A0690A06A07903046CDE9047713
:1013E000039703F017FC236B0093636B0193A36BCC
:1013F0000293E36B0393636A0693E36A07932D1AE0
:101400000823304603F006FC636B0093A36B019343
:10141000E36B0293236A0393636A0493A36ACDE99F
:101420000537236B07932D1A0823304603F0F2FB90
:10143000A36B0093E36BCDE90137636A0393A36A5F
:101440000493E36A0593636B07932D1A08233046D0
:1014500003F0E0FB2D1A10D40D4C35B908223146AB
:10146000204603F0B0FB01280FD008232246314666
:10147000304603F0CFFB2D1AEFE7054A082331462B
:10148000304603F0A2FA2D18F8D409B0F0BD00BF21
:10149000D062000000487047CC6200002DE9F04F98
:1014A0009DB0036802934368039383680493C36801
:1014B0000593036906934369079383690893C36996
:1014C0000993DDE9062CDDE904BEDDE90246984614
:1014D000DFF890A1089B00930027CD595AF8049B90
:1014E0000CAB2DBADD514FEAF223A94483EAB213C3
:1014F000009D83EA72634B4425EA020502EA0C0967
:1015000085EA09052B44434486EA0B054FEA743803
:1015100088EAB408254006EA0B0985EA090588EA45
:10152000B4580437A844402F03EB0E054344DE466D
:10153000DDF8008040F087804B490A914FF0100A97
:1015400051460AF1010A0DF1700E0AF00F070EEB79
:10155000870701F00F0957F8407C01974FEAB74819
:1015600088EAF71801F10E0707F00F070EEB87075F
:10157000093157F8407C4FEAF74E8EEA774ECDF8A6
:101580002CE001F00F010DF1700E0EEB81010EEB5E
:10159000890951F8401C59F840EC7144DDF804E029
:1015A00088EADE08DDF82CE041448EEA972E71448B
:1015B00005EA02084FEAF52E2CEA050787EA080734
:1015C0008EEAB51EDDF8288049F8401C8EEA756E5B
:1015D000774458F804EFCDF8288077440F440099F9
:1015E000CDF800C039444FEA733E84EA06078EEA1C
:1015F000B30E1F4004EA06088EEAB35E87EA0807C6
:101600007744BAF1400F01EB0B0E0F44B34622D1E1
:1016100002993944016003991944049B41602344B1
:101620008360059B3344C360069B73440361079B3F
:101630002B444361089B13448361099B6344C3614A
:101640001DB0BDE8F08FCDF800C0B34694462646E5
:101650002A461C4641E7944626462A461C467546BD
:101660003B466DE77C630000B863000010B504469C
:10167000C8B17022002104F002F80B4B0B4A0C4950
:101680000C48C4E900230C4BC4E902130B4BC4E91A
:1016900004030B4BA36103F17453A3F52303A3F6D7
:1016A0009243E361012010BD85AE67BB67E6096A1E
:1016B00072F36E3C7F520E513AF54FA58C68059B34
:1016C000ABD9831FBFF36F8F72B6124B4FF0FF324F
:1016D000C3F88020C3F88420C3F88820C3F88C2086
:1016E000C3F89020C3F89420C3F89820C3F89C2036
:1016F000C3F88021C3F88421C3F88821C3F88C2162
:10170000C3F89021C3F89421C3F89821C3F89C2111
:10171000704700BF00E100E01A4B70B54FF0FF3496
:1017200001265E60C3F84843C3F8084303F5C0438D
:10173000154D5E60C3F84843C3F8084303F598337A
:1017400002205E60C3F84843C3F80843C5F8084365
:1017500000F0B2FD00236E60C5F84C31D5F84C2185
:10176000C5F81031D5F81021C5F84431D5F8442119
:10177000C5F80035054BC3F808454FF08043C3F862
:10178000084370BD00B000400020004000F0014060
:10179000014B1B68184700BF0C00002007B50B4623
:1017A000002102460091034800F006F803B05DF8FE
:1017B00004FB00BF911700002DE9F04F8DB01D46CE
:1017C000531E8246019103934FF00009039B587802
:1017D000252803F1010419D11E4600204FF0FF38DF
:1017E000023603460290444631780396392954D88C
:1017F0001F2914D8002900F0EE8101992520D04737
:1018000001993078D04709F10209DFE7002800F09C
:10181000E2810199D04709F101090394D6E7A1F1CA
:101820002002192AE9D801A757F822F095180000DC
:10183000FB170000FB17000095180000FB170000C5
:1018400015190000FB170000FB170000FB17000034
:10185000FB1700006119000095180000FB1700003D
:101860007519000021190000FB1700002F19000056
:101870004F1900004F1900004F1900004F190000C8
:101880004F1900004F1900004F1900004F190000B8
:101890004F19000008460136A6E7582900F0EB80F2
:1018A000A1F16302D7B2172FA7D8172AA5D801A78D
:1018B00057F822F01D1B00009B190000FB170000C9
:1018C000FB170000FB1700007B1900009B190000AC
:1018D000FB170000FB1700007B190000FB1700003E
:1018E000FB170000FB170000511A0000FB17000057
:1018F000FB170000F11A0000FB1700009B19000005
:10190000FB170000FB170000511A0000FB17000036
:101910007B19000001992520D04709F1010955E7FD
:10192000029A02F0FE0202924FF00008B3E7002C88
:101930000DDAB8F1000F0DDA029A002A00F04381A7
:1019400024EAE4740A2202FB0414303CA3E7B8F151
:10195000000FF5DB0A2202FB0812A2F130089AE719
:10196000B8F1000F55F8042B80F22F81002A80F285
:101970002E815442022202928DE7682903D1682BFE
:1019800006D1482387E76C2902D16C2B00F0218116
:10199000002B7FF432AF0B467DE77A2B06D17529F9
:1019A00055F8046B14D14FF0000B0CE06C2BF6D003
:1019B0004C2BF4D1073525F007037529D3E9006BCB
:1019C00003F1080506D120283BD1854F013C09E0F1
:1019D0004FEAE67BBBF1000FF5DA7642814F6BEB05
:1019E0004B0B013C0DF12D0305930023049330466E
:1019F00059460A220023FEF771FB059B303203F89B
:101A0000012DB4460593049B5A46BCF10A0F8B4640
:101A100072F1000203F1FF3106460491E7D2C3F1EF
:101A2000010B30330DEB0306B8F1000FA6F10406ED
:101A30006DDA029BD9077DD4A8EB0B03A4EB0B0452
:101A400013E02B280ABF684F684F04F1FF34C9E741
:101A500070290FD155F8042B0023FAB9634F644E57
:101A6000053C6FF004034FF0050B029A920770D407
:101A7000A04666E078216C2B03D155F8042B002397
:101A800008E04C2BF9D1073525F007031D465B68AC
:101A900055F8082B232825D1880621D5554F023C1F
:101AA00001F06001A1F1390B0DF12D0E002602F0BD
:101AB0000F01092988BF594430310EF8011D102A41
:101AC0004FEA121141EA03714FEA131C73F100034C
:101AD00006F1FF3008D2C6F1010B06F13003A1E791
:101AE000454FDCE7414FDBE706460A466346DEE743
:101AF00055F8046B304603F06BFFB8F1000F8346D6
:101B000002DB4045A8BFC346384F4FF00008A8EBA2
:101B10000B03002B92DDA4EB0804A6E755F8043B69
:101B20008DF81830314F013C4FF0FF334FF0010B6F
:101B300006AE9AE7A046EAE7029301992020D04733
:101B4000029BB8F10108F7D524EAE472013C914404
:101B5000A41AB84606E0049302920199D047029A6B
:101B6000049B9046424612F8010B0028F3D11A4616
:101B7000013A15D5002BACBFC7EB03077F425B468C
:101B8000013B15D5BBF1000FA8BF5F444F4426466B
:101B9000013E14D5002CA8BF3F1907EB080915E634
:101BA0000493029201993020D047049B029ADFE708
:101BB0000293019916F8010BD047029BE0E70199C7
:101BC0002020D047E4E70122D5E6904663E614469C
:101BD00061E64C235FE648460DB0BDE8F08F00BFDC
:101BE000F26A0000F06A0000F46A0000B1680000C8
:101BF000FC6A0000F66A0000F96A00002DE9F0476F
:101C0000058B04462807904611D4022905F00705E4
:101C100040F0CC80204603F043FD78B10138218BA1
:101C2000042811D8DFE800F0C2106D859500012965
:101C30000CBF45F0100545F02005258388F3118879
:101C4000BFF36F8FBDE8F08701F0070AAA4500F0E7
:101C5000A5800027B9463E46A368002B00F0BC8053
:101C600041F00801218388F31188BFF36F8FA168C9
:101C7000002900F0BA800D68002900F0B680D1F884
:101C80000480334652462046C047002D76D02B684C
:101C900029461D46F0E701F007035A1F012A1BD809
:101CA000002221F00701062B276889B2C4E900222F
:101CB00009D13B4603E0628B013262831B68002B33
:101CC000F9D141F002012183204603F0E9FC00280C
:101CD0007AD041F0200176E0042B0AD121F00701EF
:101CE00089B22183204603F0DBFC10B141F02001D2
:101CF0002183218B01F0070AAA454FD00027B9465E
:101D0000AAE7236921F0070141F00601062DD3F867
:101D1000009021832DD1B9F1000F3FD041F008018F
:101D2000218388F31188BFF36F8F3A492046C84753
:101D300029E021F00701236941F0040189B2042D53
:101D4000D3F804902183E6D000273E464FF0040AE2
:101D500082E721F00701236941F0050189B2052DD1
:101D6000D3F808902183D6D000273E464FF0050ACD
:101D700072E700273E464FF0060A6DE72B4687E7DD
:101D8000B9F1000FD1D1EFF31188202383F312882A
:101D9000BFF36F8F238B23F008032383258BEA0681
:101DA0002ED525F01003238305F007056669218BE6
:101DB000002EBFF670AF00232768C4E9003321F07E
:101DC000070141F001012183218B01F0070AAA4597
:101DD0004FF000097FF440AF002F9CD041F0080184
:101DE000218388F31188BFF36F8F002FC8D03D681F
:101DF000394633465246204603F07EFC2F46F4E730
:101E0000AB067FF51BAF25F02003238305F0070504
:101E100000E700BF25570000014B0360002070471A
:101E20008064000070B5114B1C680D46DCB1104B8E
:101E3000196800238B4202DB6FF0010070BD22465F
:101E400012F8106B864202D001331446F2E7E068C4
:101E500010B96FF01200F1E704F000F90028F8D093
:101E60002C600020EAE76FF00C00E7E7100000208C
:101E70008064000070B588B005460C46C0B2694663
:101E80001646FFF7CFFF00281BDB0098C8B1436858
:101E90000293836822680195CDE903360023CDE9DA
:101EA00006230593C56803F0E0FC6DB12846084998
:101EB00001AA03F0AFFE079808B9059B236008B09C
:101EC00070BD6FF01500FAE76FF01200F7E700BF82
:101ED0000559000008B5054803F0D5FB044803F098
:101EE000D2FBBDE80840034803F0CDBB026B000005
:101EF000336B0000666B000030BFFFF7FDBF00BF13
:101F000070B5264B15469A6A12F0100F9A6A14BFE4
:101F10001124102412F0080F9A6A18BF1224920795
:101F200006460AD5586B9A6A140634D519B19A6ACE
:101F300022F080029A62132401E06FF01500174B23
:101F40009A6A12F0010F9A6A18BF142412F0200F37
:101F50009A6A18BF1524D20602D49B6A9B070AD539
:101F60000E4B5B68190506D5314600F0FBF910B140
:101F700080F309880224094B9A6A920642BF5A6A82
:101F800022F400525A629A6A42F0FF029A620023D7
:101F90002B70204670BD6FF01500CCE700ED00E01F
:101FA000134B9A6A12F0007F9A6A14BF1E201D20FC
:101FB00012F0807F9A6A18BF1F2012F4002F9A6ACD
:101FC00018BF212012F4802F9A6A18BF222012F421
:101FD000003F9A6A18BF232012F4803F9A6A6FEA82
:101FE00002426FEA12429A6218BF2420704700BF73
:101FF00000ED00E010B5194B0246986A9C6A10F497
:10200000805F14BF1720162014F4006F9C6A18BF5D
:102010001820A40509D5986B986A000404D51AB154
:102020009A6A22F400429A6219200C4B9A6A12F4BE
:10203000806F9A6A18BF1A20D2050CD49B6A13F4D9
:10204000005F18BF1C20054A936A43F47F439362E4
:1020500000230B7010BD1B20F5E700BF00ED00E072
:1020600070B5454B5B688AB00546C3F3080300268C
:1020700086F31188BFF36F8F02F07F40B0F17F4F7E
:1020800011D102F00C0008280DD010074CBF0D46EE
:1020900001260022033B8DF80720032B05D8DFE83B
:1020A00003F01E5D615A3546F3E700249DF80730C2
:1020B0009BB92022294602A803F0A1FC099B002E0F
:1020C00054D0C3F3080222B96FEA53236FEA4323C3
:1020D000099302A9204603F037FC0AB070BD264BD5
:1020E000DA6A9107E1D4DA6A002ADEDBDA6A5200A2
:1020F000DBD55A69A96942F480725A61BFF34F8FE8
:10210000BFF36F8F5A6931F8021C22F480725A6152
:10211000BFF34F8FBFF36F8F4DF6027291420AD01B
:102120009A6AD2B24AB10DF1070201212846FFF79F
:10213000E7FE0446BAE72C68B8E79A6A12F47F4FC4
:1021400005D00DF107010120FFF754FFF1E79B6A6D
:10215000B3F5803FA9D3FFF723FFEAE70DF10702AC
:102160000021E3E70DF107010020EDE723F4FF7301
:1021700023F00103ACE700BF00ED00E0024A536921
:1021800043F010035361704700ED00E0EFF3088067
:10219000EFF3098101B57246FFF762FF01BD00BF91
:1021A000002080F31488BFF36F8F01F0FBF800204C
:1021B0000D490860BFF34F8F0C4880F3088800F08A
:1021C0002BF8202080F3118809484FF4046140184F
:1021D00080F30988EFF314800221084380F3148808
:1021E000BFF36F8F00F0A2F894ED00E040440020B0
:1021F000001400200749D1F890200023C2F30722E1
:102200001846934200DB7047C1F89830C1F8A0002F
:102210000133F6E700ED00E008B572B6002383F362
:102220001388FFF7E7FF144B4FF0FF32C3F880200D
:10223000C3F88420C3F88820C3F88C20C3F890200A
:10224000C3F89420C3F89820C3F89C20C3F88021D9
:10225000C3F88421C3F88821C3F88C21C3F89021E6
:10226000C3F89421C3F89821C3F89C2162B6BFF348
:102270004F8FBFF36F8F08BD00E100E01EF0040F29
:102280000CBFEFF30880EFF30980816911F8021C9D
:102290000229FFD001B503F05DFB01BD40B200286B
:1022A00007DB044A4109012300F01F00834042F884
:1022B0002130704700E100E040B200280CDB430908
:1022C000064900F01F0020330122824041F82320FC
:1022D000BFF34F8FBFF36F8F704700BF00E100E087
:1022E000054B420900F01F0053F82220012303FA96
:1022F00000F01040704700BF00E100E040B200284D
:10230000A8BF00F1604001F10101B8BF064B4FEAE0
:102310004111ACBF00F5614000F00F00C9B2B4BF7D
:10232000195480F80013704714ED00E00B4A08B50B
:102330000B4B22F07F029A60BFF34F8FBFF36F8F7A
:10234000D3F8882022F47002C3F8882001F0D0FE70
:1023500001F016FF00F03CF801F0D6FE000000008E
:1023600000ED00E010F1160F074B08D0984208D39B
:102370004033834205D98B4203D904487047403328
:10238000F9E70020704700BF401C0020801C00209F
:1023900080B584460C4615461E46074F87F30988CC
:1023A0004FF0000005498847204629463246E0475D
:1023B00003488047FEE700BF8044002075590000B5
:1023C00083590000014B10221A61704700ED00E0B4
:1023D000044800232021C2180133272B82F8001360
:1023E000F9D1704700E100E008B5EFF30583064A34
:1023F000103B02EBC30152F8330049688847BDE83F
:10240000084003F0B2BA00BF60610000024B034A0B
:102410000348022100F066B80000012000000020FF
:10242000E4640000084AC2F898000B6823F01F0318
:10243000034343F01003C2F89C308B6843F0010360
:10244000C2F8A030704700BF00ED00E02DE9F04376
:10245000DFF8608085B00E461F4604464FF0000945
:10246000B14523DA6068D8B13FB1411E08421BD1A3
:102470001F2819D92368194216D12368019303F044
:1024800097FAA36803430393D8F89050C5F3072540
:10249000D0B2013DA84207D801A9FFF7C3FF421CF3
:1024A00009F101090C34DBE76FF01502104605B0A5
:1024B000BDE8F08300ED00E0044B0522C3F8942052
:1024C000BFF34F8FBFF36F8F704700BF00ED00E089
:1024D000BFF35F8F024B0022C3F89420704700BF08
:1024E00000ED00E010B5034C01232278FFF7AEFFAA
:1024F000207010BDD40F00202DE9F043534B544CF5
:10250000D3F890302568C3F307239D4285B000F2CD
:102510009A80FFF7DDFF00200C2685421AD14D4C32
:102520004D4F25706846FFF777FCDFF82081DFF814
:102530002C9106460025AE4213D123784349002052
:10254000D1F89020C2F30722934276DBFFF7B4FF65
:10255000002042E0616806FB0011FFF763FF0130D5
:10256000DBE7009800EB05114FEA051CCB683B4008
:10257000B3F5000F48D00AD8B3F5001F30D0B3F53B
:10258000800F36D0B3F5801F10D00135D3E7B3F1FB
:10259000807F42D0B3F1007FF7D150F80C308868CB
:1025A0004A6803F005FA40F4802009E050F80C3046
:1025B00088684A6803F0FCF940F0885040F4302005
:1025C000CDE901230390D8F890302078C3F3072396
:1025D000013B98422AD96FF0150005B0BDE8F083A1
:1025E00050F80C3088684A6803F0E2F940EA0900C4
:1025F000E6E750F80C3088684A6803F0D9F940F0F3
:10260000007040F40030DBE750F80C3088684A680E
:1026100003F0CEF940F08270D2E750F80C308868B1
:102620004A6803F0C5F940F08870C9E701A9FFF7CF
:10263000F9FE237801332370A7E7C1F89830C1F879
:10264000A00001337CE74FF0FF30C6E700ED00E06B
:10265000FC640000D40F00200000F0FF000008110F
:10266000044A0123C2F840354FF080420020C2F8EE
:102670007835704700E0014020B1034B800143F002
:1026800001031847704700BFA0620000084B70B5F7
:10269000C31A0D4607499B10044659430648402279
:1026A00003F0CAF92B4601462046BDE870401847A2
:1026B000AC0D0020B76DDBB62461000073B50C4C87
:1026C0000C4A4023041B00930D460B460A49A410F4
:1026D00061430646094803F0DAF9011E05DA30467F
:1026E0002B4602B0BDE87040184702B070BD00BF75
:1026F000AC0D0020FD5A0000B76DDBB62461000070
:10270000002270B5012104461046FFF7F7FD0F487F
:1027100001F034F80E4B984215D101F03FF82669CC
:102720000C49304603F00BF800280BDB012535641B
:102730002469084904F11C0003F001F8002801DBBA
:10274000E564002070BD6FF00400FBE77528000011
:102750000000AD0B1C65000010B5074C23782BB9A9
:102760004FF4A57003F075FC01232370BDE8104001
:10277000002001F025B800BFD50F002010B5EFF301
:102780001184202383F31288BFF36F8F074A1368E5
:1027900023F00201DB07116002D4012003F0CEFB1D
:1027A00084F31188BFF36F8F10BD00BFFC0D0020B4
:1027B00030B4104B0C2202FB003301460020D3E959
:1027C0000E529863EFF31180202484F31288BFF334
:1027D0006F8F1C6C04F0C00444F002041C6480F38E
:1027E0001188BFF36F8F1DB12B46034830BC1847CB
:1027F00030BC7047AC0D00202461000010B4EFF332
:102800001182202383F31288BFF36F8F174801686A
:1028100041F002040460C80707D482F31188BFF3B3
:102820006F8F012010BC00F0CBBF4FF08041D1F87A
:102830000C04D1F80C14C907EFD5EFF3118083F322
:102840001288BFF36F8F0A490B6C03F0C00343F08B
:1028500002030B6480F31188BFF36F8F82F311883A
:10286000BFF36F8F002010BCFFF7A2BFFC0D00204C
:10287000AC0D002010B1012804D07047034B1B6C35
:102880005B0701D1FFF794BF704700BFAC0D00207C
:102890002DE9F8433649BFF35B8F0746012251E823
:1028A000003F41E800200028F9D1BFF35B8F33B926
:1028B000304931484B60CB608A6002F053FF7B1E89
:1028C000012B2DD8012F07D14FF08043D3F81C34B2
:1028D00003F00303012B23D003F001FC054608BBE2
:1028E000264B1B78F3B14FF080430222C3F8082334
:1028F0000646DFF88C904FF080444FF00108D4F882
:102900001824D4F81834D20315D503F00303012B8F
:1029100001D0012F0FD125B386F31188BFF36F8F3C
:10292000BDE8F883EFF31186202383F31288BFF309
:102930006F8F0125DDE7304603F02BF8D4F818350A
:10294000002BDCD1D4F80421002AD8D0C4F80431FB
:10295000D4F80431C4F81885C9F88081C4F8088017
:10296000CDE74FF080430222C3F80423D8E700BF2D
:10297000A80D0020980D0020C80D0020E6130020AF
:1029800000E100E0024B0B6001231360704700BFC1
:10299000000E0020004870477065000010B503F07D
:1029A0004DFB034C206003F045FB6060002010BD30
:1029B000000E0020F8B50E463046194617461D4653
:1029C00003F0A8F8B8B146EA050414F0030412D1E4
:1029D0004DB12B19032BA6EB040006D8074AD2F8F9
:1029E0000034DB07FBD50020F8BD3B1B043C196815
:1029F00001F00EFBEDE76FF01500F5E700E0014098
:102A000038B545682B69B3B11035284601F0C4F9D3
:102A1000044680B90146284601F08AF9084B9842DD
:102A20000BD108492246284601F06AF922460521C1
:102A30000620FFF763FC002038BD6FF00400FBE7C1
:102A40000000AD0B492A0000430970B507D10B4BBC
:102A5000596821B101250C68094E854001B970BD46
:102A60008A682A4002D04B68304698471CB12368D8
:102A700021461C46F2E72346FAE700BF080E002075
:102A8000386100002DE9F043476840F20636D00671
:102A90003B7B87B002EA060654BFC2F34010032016
:102AA00001F01F05B6F5837F144645EA43158DF8FE
:102AB000030042D00FD8062E18D007D8B6B1022E88
:102AC0003DD06FF0150007B0BDE8F083B6F5807F0C
:102AD000F7D101260AE040F20222964231D0B6F543
:102AE000407F30D0B6F5007FEBD1022622032CD5F3
:102AF0007A6801238B40C2F808353B696BBB05F04F
:102B00001F026D0976D1920002F1A04284F4803157
:102B1000D2F80037C1F30041C4F3404423F4E16329
:102B200044EA410423F007031C4344EA800444EAD6
:102B30000624C2F800470020C5E70726D6E704268A
:102B4000D4E70526D2E70326D0E7630341BF01237C
:102B50007A688B40C2F80C35CFE710370DF10202CE
:102B60002946384601F0D2F814F4403F80460CD193
:102B70002946384603F054FA214B9845DBD19DF89D
:102B80000210384601F012F9D5E701AB4FF0000909
:102B900003AA29463846CDE90439CDE90199CDF893
:102BA0000C9000F087FF164B98428AD114F4003342
:102BB00015D09DF803308DF80E3084F48034C4F3C2
:102BC00000444B4603AA294638468DF80C608DF820
:102BD0000D4001F01FF80A4B9842CDD071E7CDE9C6
:102BE000043303AA0DF1030329463846039300F08A
:102BF00061FFF0E702F5E07253F82230FFDE00BF1C
:102C00000000AD0BF0B54068057B01F01F0444EAFD
:102C10004514056987B0002D60D0B2F5001F00F1A2
:102C2000100506D12146284603F0FCF9002007B024
:102C3000F0BD01AE0027B2F5800F0197776038D163
:102C4000B3F1007F14BF052304238DF80430002363
:102C5000CDE904630393836823FA01F111F00101C4
:102C600019D1B2F1A07F16D104F01F03620903F558
:102C7000E07339D14FF0A04252F82330DB070AD479
:102C80000DF1030632462146284601F03FF8184B65
:102C9000984219D0029603AA2146284600F00AFF5E
:102CA000144B98421DD101222146284601F08AF892
:102CB000BCE7B3F1C06F05D0B3F1007F14BF0123AF
:102CC0000223C2E70323C0E73146284601F074F827
:102CD000084B9842DED06FF00B00A8E76FF085003C
:102CE000A5E76FF01500A2E751F82330FFDE00BF23
:102CF0000400AD0B0000AD0B70B5012383400E4AFC
:102D0000BFF35B8FDC4352E8001F01EA040542E891
:102D10000056002EF7D1BFF35B8F4FF48032824014
:102D20000648C0F80823BFF35F8FBFF36F8F0B42D5
:102D300014BF0120002070BD180E002000100140BB
:102D400070B40E49D1E90034D01AC31844F100041C
:102D500022F07F46C1E90034A6F50013B3F5400F19
:102D600009D2074B1B681A0A1B069C19054B42F136
:102D70000005C3E9004570BC01F062BA980000206C
:102D80001C0E0020A000002011B3BFF35B8F0123B5
:102D9000104A834052E800CF4CEA030C42E800C1DD
:102DA0000029F7D1BFF35B8F0B4A4FF48033834088
:102DB000C2F80433094BBFF35B8F1B68BFF35B8F13
:102DC000C340DB0742BF064B4FF40032C3F800217B
:102DD000704700BF180E002000100140140E0020A4
:102DE00000E100E00D4B1868010A0006BFF35F8F99
:102DF0000B4BD3F80435181841F10001B3F5801FCF
:102E00000AD2084BD3E90023904271EB030303D2AB
:102E100010F1807041F10001704700BF1C0E0020CE
:102E200000100140A00000202DE9F04F85B01646AB
:102E30001F469DF840A00446FFF75EFF0190FFF794
:102E4000D1FFB04271EB070354D23E4B301A67EB0F
:102E50000101984271F100014FD23B4B03EB041387
:102E6000D3E902239F4208BF96425ED037494FF410
:102E7000803804F1500508FA04F8AD00C1F8488321
:102E80002046ADB202F047FF26F07F4B05F18045AA
:102E900004F5A87305F58835DC464FF00309029365
:102EA000029A2CF07F4341F82230C1F84483D1F8D4
:102EB0000435274A6FF00200C01A604420F07F40BA
:102EC000904232D9286868B1D1F804350393A3EB56
:102ED0000B0020F07F40B0F5000F26D9204602F00D
:102EE0001AFF039BBAF1000F07D109EB030C09F19C
:102EF0000109D5E7BAF1000F09D06FF0150520469A
:102F00000199FFF741FF284605B0BDE8F08F012386
:102F1000104ABFF35B8FA34052E8000F184342E80A
:102F200000010029F8D1BFF35B8F07490E982301F8
:102F300001EB0412C8500F9B5360C2E902670025E1
:102F4000DDE700BF01008000880000200010014084
:102F5000FDFF7F00140E00207FB51C4C1C4BC4F8F5
:102F60000833C4F848331B4B00254FF0FF304FF0B7
:102F7000FF31C4F80855C3E902014FF48033C4F8A7
:102F80000433154B02264FF400320121C4F80463C8
:102F90001120C3F880212A46FFF7B0F91120FFF76E
:102FA0007DF90E4A0123A360236013600C4B0D4A88
:102FB0000093CDE9015500232846FFF735FF304641
:102FC000FFF766FC284604B070BD00BF001001404A
:102FD00003000F008800002000E100E0180E002030
:102FE000412D0000FFFF7F002DE9F7432F4CD4F85F
:102FF000043399070BD5D4F8043143B12C4A00238C
:10300000C4F80431D4F80431136801331360D4F8E0
:103010000433DA0329D5BFF35B8F264B53E8002F27
:1030200022F0010143E800100028F7D1BFF35B8FC5
:10303000D30702D4D4F84031BBB10025C4F84051C5
:10304000D4F84031FFF7CEFEEFF31182202383F353
:103050001288BFF36F8F184BD3E90267B042B941B2
:1030600006D282F31188BFF36F8F03B0BDE8F083FF
:103070004FF0FF384FF0FF39C3E90289D3E9001060
:103080001D604FF48033C4F84833C4F84051D4F87D
:10309000403182F31188BFF36F8F0029E5D0009093
:1030A00032463B4628468847DFE700BF0010014014
:1030B0001C0E0020140E00208800002030B5431C98
:1030C000124C85B005D08442A8BF0446012CB8BF7D
:1030D0000124FFF787FE0E4B0C4DD3E90013401A75
:1030E000B0F5000F10D22218AA4228BF2A46521863
:1030F0004FF0000007490091CDE9010043F10003C2
:10310000FFF792FE05B030BD2A46F0E7FFFF7F00D3
:1031100098000020412D000008B5FFF763FE024B28
:103120001B68C01A08BD00BF9800002010B5084CED
:10313000012363601120FFF7BFF8064BC4F8083382
:10314000C4F84833044B4FF40032C3F8802110BD5B
:103150000010014003000F0000E100E030B581687D
:1031600085B0103921F00704054602F0C4FB102297
:103170000146684602F04EFC07491022684602F0FC
:103180003EFC10236A462146284602F084FB0038A4
:1031900018BF012005B030BDF065000030B50D4608
:1031A000816887B0102302AA1039044602F05EFB42
:1031B000002802DA012007B030BD102202A9204603
:1031C00002F00CFE00283AD11E49102202A802F09B
:1031D00006FC00280CBF012302232B70204602F0BE
:1031E000E9FD012301460DF10702204602F03EFBF6
:1031F0000028DFDB9DF8073003F00F021B096A701F
:103200002B7101220DF10701204602F0E7FD10B9F4
:103210006B78042B03D901236B7000232B71A268F8
:10322000183A22F00702083AA91C204602F0E9FDEC
:103230000028BFD1E91C204602F03CFEBBE7032377
:10324000CBE700BFF0650000F0B5354F460085B014
:103250000546694657F8260002F032FE044610B1D2
:10326000FF2005B0F0BD013602A957F8260002F094
:1032700027FE012837D12B482A46492102F0E8FAD7
:10328000294B02938DF80C409DF800609DF8087062
:10329000264C00222078314602F092FD50B360782F
:1032A000394602F08DFD28B3A378042B03D09DF896
:1032B000031099421ED1E378042B03D09DF80B1024
:1032C000994217D12379042B10D16279022A1DD19A
:1032D000174B18482A46492102F0BAFA6079831E32
:1032E000022BBED9BCE70028CED0B9E79DF802106A
:1032F0009942EAD00132032A04F10604CAD10E48E9
:103300002A46492102F0A4FA0120AAE7032A05D09F
:103310000A4B0B49042A08BF0B46DAE7094BD8E7EA
:10332000B4650000096C0000030103039E6C0000FB
:10333000EB6B0000546C0000786C0000F06B000038
:10334000026C0000E66B0000BFF34F8F0549064B8F
:10335000CA6802F4E0621343CB60BFF34F8F00BF33
:10336000FDE700BF00ED00E00400FA054FF07043F8
:1033700093F8E02F062A09D1D3F8E83FC3F30313EB
:10338000033B042B02D8024AD05C704700207047F0
:10339000BF6C0000024AD2F80034002BFBD070470B
:1033A00000E0014010B502F0B8FD40B14FF080538D
:1033B000944AD3F82433C3F30423C2F84035FFF70B
:1033C000D5FF10B1904B914A5A6702F0A6FD48B163
:1033D0004FF080534FF08042D3F84432C3F342336E
:1033E000C2F83C35FFF7C2FF30B1894AD2F8FC3051
:1033F00023F08073C2F8FC3002F08FFD40B14FF033
:1034000080430022C3F80C21C3F81021C3F83825EB
:10341000FFF7ACFF20B14FF080430322C3F8A02593
:10342000FFF7A4FF60B17B4B0522C3F810260122F1
:10343000C3F888260022C3F818263F22C3F81426B2
:103440004FF08053D3F83021511C09BF4FF0704327
:10345000D3F8343193F8E02FD3F8E83F08BFC3F333
:103460000313062A4DD1033B042B03D86A4AD35CCD
:10347000002B46D04FF08052684BD2F80414C3F8AA
:103480002015D2F80814C3F82415D2F80C14C3F888
:103490002815D2F81014C3F82C15D2F81414C3F858
:1034A0003015D2F81814C3F83415D2F81C14C3F828
:1034B0004015D2F82014C3F84415D2F82414C3F8E8
:1034C0004815D2F82814C3F84C15D2F82C14C3F8B8
:1034D0005015D2F83014C3F85415D2F83414C3F888
:1034E0006015D2F83814C3F86415D2F83C14C3F848
:1034F0006815D2F84014C3F86C15D2F84424C3F808
:10350000702502F00AFD48B14FF080534FF0804221
:10351000D3F8583203F04F03C2F8E43E02F0FDFC4A
:1035200048B14FF08043D3F80024D20744BF6FF076
:103530000102C3F800244FF08053D3F83021062A4B
:1035400026D1D3F83431033B042B02D8344AD35C60
:1035500063B1344AD2F83C3743F48063C2F83C3755
:103560004FF08053D3F83031062B11D14FF08053F8
:10357000D3F83431033B042B02D82B4AD35C3BB144
:103580004FF01023D3F808224FF08043C3F858259A
:103590004FF01021D1F80C32DB0714D5234801235A
:1035A000C0F80435FFF7F6FED1F80C3223F0010322
:1035B000C1F80C32FFF7EEFE0023C0F80435FFF728
:1035C000E9FEFFF7C1FED1F80032002B03DBD1F892
:1035D0000432002B14DA154901234FF01020C1F8F2
:1035E00004351524FFF7D6FEC0F80042FFF7D2FEDF
:1035F000C0F80442FFF7CEFE0023C1F80435DEE731
:1036000010BD00BF0030014000C007400DF0ADBA52
:1036100000ED00E000500040BA6C000000C0004027
:10362000B56C000000100040B06C000000E00140EC
:1036300030B50468CCB1BFF35B8FB4FA84F3C3F147
:103640001F03DBB201229A4024EA020250E8005F25
:10365000A54204D140E8002CBCF1000FF6D1BFF325
:103660005B8FE6D102480B7030BD0248FCE700BF1B
:103670000000AD0B0200AD0B10B50368CB40DB07BB
:1036800014D401238B400268BFF35B8F43EA02012D
:1036900050E8004F944204D140E8001CBCF1000FF8
:1036A000F6D1BFF35B8FEED1014810BD0148FCE7B6
:1036B0000000AD0B0400AD0BF7B5044618B10128AE
:1036C00023D003B0F0BD4FF080430222C3F808239B
:1036D0000122DA60C3F80401D3F80431064601235D
:1036E0008DF8073042F210754FF08047D4B1012CAD
:1036F000E7D1D7F80C3403F48033AEBB83B3012099
:1037000002F01AFC013DF4D12AE04FF08043002280
:10371000C3F808035860C3F80021D3F800310DF155
:103720000706DCE7D7F8183403F480333EB9002BE2
:10373000C7D0012002F000FC013DF3D1C1E7D7F86A
:10374000182402F003023260002BBAD09DF8070063
:10375000012803D102F0F0FB013DC7D1012CB0D10B
:10376000054B00225A71ACE7D7F80C2402F0010295
:103770003270002BEAD1F3E7200E0020044B1A79B7
:1037800022B9012218609A800248704702487047A7
:10379000200E00200000AD0B0C00AD0B08B5074B50
:1037A0001B682BB10020FEF79BFD08B9FEF776FDE4
:1037B0004FF080430022C3F8182508BD200E0020DA
:1037C00038B5B0B1012855D14FF080420023C2F87E
:1037D0000031D2F80021304A03F180430121196001
:1037E0002E4B1B68002B50D04FF08043C3F80403CE
:1037F00040E04FF08043D3F81814D3F81824C803DE
:103800002AD502F00303012B04D013B10020FFF7E7
:1038100053FF00234FF08042C2F818350023C2F84E
:103820000431D2F804311E4AD2F8FC0040F0807313
:10383000C2F8FC301B4B1C6844F0010119605D6844
:103840005968491BB1F50A5FFAD31C60C2F8FC0045
:103850000823154A0220BFE7D3F81424D107D8D58E
:10386000D3F81C249207D1D40C4A12681AB1022250
:10387000C3F8042338BDD3F80421002AFBD000226A
:10388000C3F80421D3F80431F4E71368002BFCD00B
:10389000002313601368EDE700010040200E0020B4
:1038A00000ED00E0001000E00401004010B54FF012
:1038B0008043D3F800216AB10022C3F80021D3F875
:1038C00000210122C3F80823114B587910B95A710D
:1038D0001B6898474FF08043D3F8042172B100224F
:1038E000C3F80421D3F80421D3F81824D3F81824FA
:1038F000920704D10122C3F818259A6010BD022254
:10390000C3F80823024BBDE810401B68012018478C
:10391000200E002070B500F108030C4C34F8133071
:10392000DA0505460E4607D5C3F3432304EBC3026D
:1039300054F8333052689847A3682BB1E268314697
:103940002846BDE87040184770BD00BF1400002035
:1039500010B4C0B2114A083032F81030D9051BD566
:10396000C3F3432123F4F85322F8103002F10E047C
:10397000002034F8023F13F4807F03D0C3F34323C5
:10398000994209D001302028F3D1002342F8313088
:10399000034810BCFFF770BE10BC70471400002035
:1039A0006C000020F0B505460020044601260746BD
:1039B0008C420BD1114BD3F87C2132B10022C3F8D9
:1039C0007C21D3F87C3140F00040F0BDE3B29B0095
:1039D00003F580729B0806FA03F31D420BD002F137
:1039E000804202F5C042D2F800C0BCF1000F02D004
:1039F0001760126818430134DAE700BF0060004026
:103A0000CBB20246083308460C4931F81330990608
:103A100011D599070FD410685B0B01219940C0F8AC
:103A20000813126802EB8303D3F8102522F0030277
:103A3000C3F810257047002102F0D5BA1400002009
:103A4000F7B5CDB2174E0835074636F81530DB0707
:103A50000C4624D5FFF7D4FF36F815309A0606D564
:103A60005B0B3A6803F5A273002142F8231020464D
:103A7000FFF76EFF002301A826F81530019402F02D
:103A80005FFA019B00EB8300074BD0F8002713403F
:103A900043F00203C0F80037044803B0F0BD044807
:103AA000FBE700BF14000020F0F8FCFF0000AD0BA6
:103AB0000400AD0B2DE9FF41136807460C4615467F
:103AC000FBB1CEB2DFF83C81083638F8162002F0A0
:103AD0002202222A22D00022CDE900228DF80E20D7
:103AE0008DF80F200DF10E010DF10F02204602F0AE
:103AF00031FA38F8163023F0020343F0010328F8B6
:103B000016306B684BB393F800C05A683D4EE3B271
:103B1000083336F81310880702D5B2B13A481FE0CF
:103B200021F02001C904C90C26F813106AB1BCF1B8
:103B3000030FF3D86A68386852681278BCF1000F36
:103B400011D102F5A27240F822C036F8132022F0FB
:103B50001C0242EA8C0226F81320AB6843BB2B48B8
:103B600004B0BDE8F08100EB820041EA4231D0F8B8
:103B700010E52EF0030EC0F810E53F6807EB820752
:103B800041F02001D7F8100526F8131020F4473033
:103B900020F44070C7F810052002D7F810E500F4B3
:103BA000F85040EA0C4040EA0E00C7F81005CCE798
:103BB000D3E900672046FFF7CBFE002ECFD0114D92
:103BC000D5E90023964203D19F4201D1002209E0AA
:103BD0000F480DF10F01FFF72BFD0C4B9842BFD1A1
:103BE0009DF80F2045F83260E4B205EBC2030834BB
:103BF0005F6035F8143043EA422343F4807325F8BC
:103C00001430ACE7140000200400AD0B0000AD0B35
:103C10006C0000202DE9FF4107460C461E4612B3FA
:103C2000CDB2DFF8D080083538F81530980701D4C8
:103C3000990621D413F01C0F02D05378012B1BD00E
:103C400001238DF80F300023CDE900230DF10F0182
:103C5000931C2046013202F07DF938F8153043F00C
:103C6000030328F81530002E42D0E1B2214D08316F
:103C700035F81120930703D41F4804B0BDE8F08144
:103C800096F800E0D7F800C022F020020EF5A270EE
:103C9000D2040023D20C4CF8203025F8112096F8DD
:103CA00001C0BCF1000F23D03868B67800EB8E005D
:103CB0004FEA0C4CD0F8103523F4981323F4F85342
:103CC000C0F81035230203F4F8530CF4403C3605D9
:103CD000D0F8107543EA0C0306F4801642EA4E321F
:103CE000334342F020023B4325F81120C0F8103541
:103CF0000248C2E7140000200400AD0B0000AD0B29
:103D0000014BC3E90212704714000020C9B2083108
:103D1000044B33F81130990643BF5B0B0248137014
:103D200002487047140000200000AD0B0400AD0BEA
:103D300070B5164D95F8604006462CBB21464022D2
:103D400005F1100001F066FE30682E6D21468E42AE
:103D50000ED10023C0F87C31D0F87C3140F307301D
:103D6000FEF79CFA01230A4885F86030AB6570BD08
:103D7000CBB29B0003F580727C2B08BF845001F10D
:103D8000010108BF8358E2E70248F0E71400002071
:103D90000000AD0B0C00AD0B034B93F86000003836
:103DA00018BF0120704700BF140000200148FFF732
:103DB00063BC00BF680000200148FFF739BC00BFAA
:103DC0006800002073B503680C46D3F8041300297B
:103DD000A4BF4FF00041C3F80413E3B21D490833F8
:103DE00031F8133099061AD513F0020617D15B0B80
:103DF0009C00056804F580716E5069580168214483
:103E0000D1F8104544F00104C1F810452AB1016809
:103E1000012202FA03F3C1F8043302B070BDC3F308
:103E20008203042B12D0052B12D001A8019402F0BA
:103E300087F8019AD0F81035D34003F00103991C9C
:103E4000204602B0BDE8704002F0CDB80321F7E78C
:103E50000221F5E7140000202DE9F347544B554F9C
:103E6000D3F80403396DC0B240F00040FFF79AFD6B
:103E7000051E18DA0023F96D0093684602F0C2F8B7
:103E80004FF0010897F85C30DA075AD4396D4FF0DB
:103E90000040FFF787FDF96D684602F0B3F800288F
:103EA000F0D125F000450124002D69D102B0BDE814
:103EB000F08794FAA4F4B4FA84F4E00804F1080357
:103EC00004F0070237F813901DF80030019408FA47
:103ED00002F223EA02030DF8003001A802F030F8E4
:103EE000019B03F5E0734FEA990150F82360C9F391
:103EF000820A4B07D146C6F3014626D520465146D5
:103F0000FFF708FD01A8019402F01AF8019B03F5E0
:103F1000E073F6B250F82330C3F301439E4207D159
:103F20000021204602F05FF83146204602F05BF89F
:103F300001A8019402F004F8019B08FA03F3C0F809
:103F40002035009C002CB4D1A0E7022E0CD1032117
:103F5000204602F048F80AF00503012BE8D1494653
:103F60002046FFF7D7FCE3E70221204602F03BF8AA
:103F7000BAF1030FF3D0032EDAD1BAF1020FEDE755
:103F800095FAA5F3B3FA83F304FA03F29B0003F165
:103F9000804303F5C04325EA0205D3F81005D3F8A2
:103FA0001015C0F30420C1F30141FFF7B3FC7BE718
:103FB0000060004014000020044AD2F80034DB07FF
:103FC000FBD50160BFF35F8F704700BF00E0014089
:103FD0004FF080531A69B0FBF2F302FB130373B97D
:103FE000084B0222C3F80425C3F80805D3F80024BF
:103FF000D207FBD500220448C3F8042570470348C4
:10400000704700BF00E001400000AD0B0A00AD0B9F
:1040100010B5054C0123C4F80435FFF7CDFF00238C
:10402000C4F8043510BD00BF00E0014010B5144CC9
:10403000A8220021204601F0EDFC03232361114A50
:104040006361114BA261E3614FF48063236200233B
:10405000A3626362E36222660C4A62661022A26671
:104060002367E3666367BFF35F8F094A12F8011D98
:10407000E1540133102BF9D1BFF35F8F10BD00BFA6
:10408000280E0020C46C0000E60F0020D60F002090
:10409000DD6C000038B5094B53F82040013053F86F
:1040A0002050A54200D838BD636823B1204601F0F6
:1040B000FAFF0834F5E723689847FAE7BC65000083
:1040C00008B5094B012203201A70FFF7E3FFFDF743
:1040D00001FF0420FFF7DEFFFCF76AF9034A137BB8
:1040E00023F00103137308BDE6130020A80000208D
:1040F00008B50348034A0021121A01F0ECFF08BD7D
:1041000088000020E813002008B50020FFF7C2FF58
:10411000184B83F30888184C636943F40073636198
:104120000025E02384F82230E57725766576A576AC
:1041300084F82050636A43F4E023636284F82350D8
:10414000FEF71CF8FEF73EF94FF0FF33A362E3627F
:10415000FEF7D2F9FEF75AF901F07FFF0120FFF7D1
:1041600099FF0220FFF796FF04482B462A4629466E
:10417000FEF70EF9401C002000ED00E0C1400000F9
:1041800008B50648064A0749121A01F0A6FFBDE81D
:104190000840054A0549064801F09FBF000000207D
:1041A00086000020E06C000000000000E06C0000D1
:1041B00000000020034B1B680BB9FEF7ADBF0020C9
:1041C000704700BFD00E002030B570B10B4B5B685C
:1041D00098420AD0036843B1D3E90421D0E90445E9
:1041E000121941EB0501C3E90421D0E90032136043
:1041F0005A600023C0E9003330BD00BF78000020C2
:1042000010B50E4B1C689C4204D1FFF7D3FF6FF032
:10421000004010BDFFF7CEFF002CF8D0D4E90432E7
:104220001B1A62EBE072B3F1004F72F10001EEDA9B
:10423000002AACBF18460020EBE700BF7800002042
:104240002DE9F84FEFF3118C202383F31288BFF38D
:104250006F8FDFF8ACA0DFF8AC902B4FC9F80000EF
:10426000DAF800000024504508BF00200025D7E9F7
:104270000021D9F80030E04678B3D0E9046C4FEA69
:10428000E37EB3427EEB0C0B05DAF61A6CEB0E0400
:10429000C0E9046421E0B21841EBE671C0E90445CD
:1042A000C7E90021FFF790FF88F31188BFF36F8FF4
:1042B00083689847EFF31188202383F31288BFF3B4
:1042C0006F8FD9F80030DAF800009B1B5045C446C8
:1042D000C9F80030CBD1D7E900219A1841EBE3733C
:1042E0000024C7E90023C9F80040FFF789FF2146F1
:1042F000FEF7E4FE88F31188BFF36F8FBDE8F88FF7
:1043000078000020D00E00202801002070470020F7
:10431000704730B583688B4285B0044615460ED988
:104320006368C068194401AA01F070FC28B962688A
:10433000019B9B1A2B60029B6B6005B030BD6FF038
:104340002100FAE770472DE9F7430E4617469946D4
:10435000044628B94FF0FF38404603B0BDE8F0836B
:104360000029F7D0002AF5D0CB680D891D4404231D
:104370000DEB03022946384601F078FA8046002802
:10438000E8D1BDF80410738946F60812914225D190
:10439000BDF806109942DDD104230DEB0302294438
:1043A000384601F063FA0028D4D1BDF8042046F65F
:1043B00007139A42CED1C4E900679DF82830A4F8CB
:1043C0000890A3727389BDF806202B44E3607389BB
:1043D00013442B44043563612561BDE7002BE4D011
:1043E000B8E72DE9F3410E4617461D46044620B9AD
:1043F0004FF0FF3002B0BDE8F0810368002BF7D02A
:104400004368002BF4D04FF6FF78D4E904239A4296
:1044100016D223685B8923B1E368934204BF043357
:1044200023610423216960680DEB030201F01EFA89
:104430000028DDD1A37A2BB1D4E903329A4201D30B
:104440000120D7E72389BDF80610434501F1040296
:1044500003D0BDF804C09C450BD115B1BDF80430A4
:104460002B8023690433336039802369134423612B
:10447000C0E7236913442361C7E748B103683BB130
:1044800043682BB1C068884294BF00200120704768
:104490004FF0FF30704773B50C46064611460223B5
:1044A00001AA204600F01FFA0546E8B9019A1F2A22
:1044B0000ED92368A2F1200119442022304601F0D0
:1044C0009EFA2368019A13442360284602B070BD07
:1044D0000146C2F12002304601F09CFA019A21689F
:1044E000C2F120003044EAE76FF00205EDE701F089
:1044F00076BA4FF4C07358433030704710B5044655
:1045000001F0F2F9A3684FF4C072303B02FB1030A7
:1045100010BD70B50D46044601F04CFC2A46A0F1D2
:10452000080104232046BDE8704001F09FB913B58F
:104530000446019101F03EFC0423A0F108010DEBBB
:104540000302204601F079FC02B010BD70B513469D
:104550000E461546002102460446FCF71FFC50B9E2
:104560002B4604F12C0201212046FCF717FC10B168
:10457000002E08BF002070BD73B5044600200D4614
:104580001646FBF795FF6946C0B2FDF74BFC30BB02
:104590002C2303FB05440098E36825891D4404236C
:1045A0000DEB0302294601F061F9C0B9BDF8042002
:1045B0006489009846F608139A4215D1BDF8063072
:1045C0009C420CD104230DEB0302611901F04EF95A
:1045D00028B9BDF8042046F607139A4207D0009880
:1045E00001F043F902B070BD002CF2D0F7E7BDF83E
:1045F0000610214429443160F1E737B50446426A88
:10460000802501A902200195FDF734FC58B9019BD2
:10461000226DA36201A905200195FDF72BFC05463B
:1046200028B1092500E00125284603B030BD019BD3
:10463000206A636501F058F9E065F5E7012303603E
:1046400003F1012343600023C0E90233704743793B
:10465000012B07D10368012B04D10079431E584276
:1046600058417047002070477FB506460D4602202E
:1046700001A9FDF7D7FB38BB0198FFF73FFFF16DAC
:104680000446284600F0D0F80444019801F02CF9C3
:104690000646019801F02FF9082201460DEB0200B1
:1046A00001F0B8F92B798DF808302146019833468E
:1046B00002AA01F0F0F8041E019818BF012401F0CD
:1046C000D4F8204604B070BD0124FAE701F0F8B830
:1046D0002DE9F8430E46002107460846FBF7E8FEA1
:1046E000012104460020FBF7E3FE33789C4221D0F1
:1046F000984221D101252C2303FB0575F86DAC6A86
:10470000FFF7F7FE013C07464FF000086B6A03EB2A
:10471000C40253F83410D2F804901B684A46C91AF0
:104720003046C844FFF7D2FFB84504F1FF34EDD35B
:10473000BDE8F8830025DEE70120F9E737B5154627
:104740000C460520694601F0BBFBE979012903D03D
:104750000022204601F0C8FB9DF80330012B02D156
:10476000204601F0A0FBA9682046FFF7E0FE2046A6
:10477000FEF7F4FC002003B030BD73B50D460646CD
:10478000FCF712FC0446E86050B302282DD101A9C1
:10479000FDF748FB58BB01982A463146FCF764FBFD
:1047A0000446D0B9019801F005FB012301460DF143
:1047B0000302019801F05AF80446A0B901980122B9
:1047C0000DF1030101F00AFB10B101238DF8033054
:1047D0009DF8033003F00F03EB71019801F045F8E9
:1047E000204602B070BD0124F7E70724F8E7012452
:1047F000F6E738B5436A0446C06D5D68FFF779FE99
:104800000246A06A002301382B449A4201D901389C
:10481000FAE738BD436A00205A68034613448B42C6
:1048200000F10100FAD3704710B543790279012BEA
:1048300014BFCB01002302F1FF3201FB02330268F7
:1048400014BF4C000C46013A04FB023010BD70B599
:104850000368CD1A002D02DC6FF05F0070BD93F984
:1048600000601C78002E0ADB5C1C04601B7813605F
:104870000368C91A13688B42EED80020EEE704F0F3
:104880007F04013C032C2BD8DFE804F0020A14213A
:10489000012DE1D05B781360036802330360E7E722
:1048A000022DD9DDB3F801305BBA9BB21360036807
:1048B0000333F3E7032DCFDD9C785D78DB782402AA
:1048C00044EA05442343136003680433E6E7042DF8
:1048D000C2DDD3F801301BBA136003680533DDE78E
:1048E0006FF06300BAE770B404680E1B002E07DD9A
:1048F00026789E4208D10134046070BCFFF7A7BF40
:104900006FF05F0070BC70476FF06100FAE738B578
:1049100003230446FFF7E7FF18B9136813B96FF0D4
:10492000670038BD013B136023681A78002AF6D16E
:1049300001332360F5E72DE9F34190461F4601AAB4
:10494000302305460E46FFF7CEFF0446F0B92B682C
:10495000F61A002E34DD42461B7842F8043B019BD8
:104960002E681E44314606232846FFF7BCFF044646
:1049700060B92B68D8F80420C8F808309918B142FB
:10498000296007D10C213846FCF7B8FC204602B05C
:10499000BDE8F0819B5C3A46314642F8043B2B6807
:1049A00001332B602846FFF752FF60B92B687A6805
:1049B000BB601344B3422B6018BF6FF06504E5E79A
:1049C0006FF05F04E2E70446E0E7F0B50024064636
:1049D000204665B2AB4200DCF0BD51F8247052F8BD
:1049E00024503D440544AF4200F0010018BF0020B0
:1049F00046F8245088BF40F001000134E9E700EB9D
:104A000081010023884200D3704751F8042D43EA06
:104A100052030B60D307F5E770B50368DB07054663
:104A2000144604D4BDE870401146FFF7E8BF1346B2
:104A30000A460146FFF7C9FF214606462846FFF70A
:104A4000DEFF46B104F18044013C55F8243043F0C8
:104A5000004345F8243070BD4FF0000C2DE9F74FAE
:104A6000654664464FFA8CF94B4516DC4FF0FF362D
:104A700006EB430601964FF00008019F53FA88FEAB
:104A80004FFA8EFEBE455FFA88F628DB00EBC300C6
:104A900040F8044C03B0BDE8F08F4FF0000E02EB7D
:104AA0008C0AF04651F82E705AF80469A6FB076785
:104AB00036190EF1010E6F4134464FFA8EF64FF063
:104AC000000B28BF4FF0010B4E45D8443D46E9DDB1
:104AD00040F82C4045460CF1010C3C46C2E701363B
:104AE000A94676B202EB8E0A002577B2BB4205DCFE
:104AF00040F82E4008F101084C46BEE76FF003076E
:104B0000774351F826C05AF80770A7FB0C7C3F1971
:104B10005CEB090C4FF0000B28BF4FF0010B5D441C
:104B2000E1463C460136E0E7002310B51C465AB288
:104B3000914200DC10BD40F823400133F7E710B587
:104B400000231A465CB2A14203DCB2FA82F04009AB
:104B500010BD50F8234001332243F3E74A110123EB
:104B600050F8220001F01F018B40184070474B1E87
:104B700010B55BB2041D1A0603D45A1E54F8221055
:104B800071B101335BB283B103F18042013A50F855
:104B90002210002231B9013B02EB431210B210BDCA
:104BA0001346E8E749080132F4E71846F7E710B57D
:104BB00000235CB2A24200DC10BD51F8234040F853
:104BC00023400133F5E710B5013A52B2130601D57F
:104BD000002010BD50F8224051F822309C4205D8E8
:104BE00002F1FF32F2D24FF0FF30F2E70120F0E79E
:104BF00030B5013A52B20023140603D5181E18BF6F
:104C0000012030BD50F8224051F822506C4023431F
:104C1000013AF1E7F0B5002406469C46204665B20D
:104C2000654500DBF0BD51F8247052F824303D1A80
:104C3000ED1AAF4200F0010018BF002046F82450E2
:104C400038BF40F001000134E9E770B59DF910600C
:104C50001D4633460446FFF7B8FE30B932462146BA
:104C60002846FFF7B0FF012807D033462A462146E1
:104C70002046BDE87040FFF7CDBF70BD70B59DF90F
:104C800010601D4633460446FFF7C4FF38B1334673
:104C90002A4621462046BDE87040FFF796BE70BD0B
:104CA0002DE9F04FA5B01D4614ABCDE902310190BE
:104CB000294610461746FFF75AFFC0EB851424B269
:104CC000002C2146B8BF04F11F01634203F01F030B
:104CD00041F3471104F01F0604A858BF5E42FFF7D6
:104CE00023FF002E4FEA81002DDD04AB0022184483
:104CF000C6F1200E13469D421AD804AB03EB850380
:104D000000936F1E24AB4FEA45084FEA8509012640
:104D100003EB8707002C53DA24AB03EB86060198DC
:104D200056F8881C2A46FFF742FF25B0BDE8F08FF1
:104D300057F823C00CFA06F10A4340F8042B01335C
:104D40002CFA0EF2D7E704AB2A4639461844FFF78F
:104D50002EFFD2E75AF8883C53F8202024AB03EB0F
:104D600080030CF1010C53F8803C0B44D31A34BF80
:104D70004FF0010B4FF0000B9A425EF8882C42F87E
:104D8000203018BF59464FFA8CF04045E2DB731AC9
:104D90005E42294604A85E41FFF731FE09F1900307
:104DA0006B44009853F8802C57F8803C294643EA1E
:104DB000C273013C47F8803C24B2FFF720FEA9E70C
:104DC00024AB4FF0000CC6F1010E614603EB860ADE
:104DD00003EB8E0ED7E730B591B004461D4668460A
:104DE0009DF95030FFF738FE2A4669462046FFF706
:104DF00057FF11B030BD30B51C4691B0054693F950
:104E000000306846FFF728FED4F8AC3069462846E3
:104E1000984711B030BD13460A46FFF7ECBF2DE9A5
:104E2000F04793F9006092B0044689461046314637
:104E300015461F46FFF783FE002840F091803A4652
:104E4000494602A8FFF7E7FF3B4602AA21460AA807
:104E5000FFF7D1FF02A908463A46FFF7DCFF3B46C1
:104E60002A4649464846FFF7C6FF07F104083A4676
:104E700029462846FFF7CFFF43462A4621462046CB
:104E80000096FFF7E2FE43462A462946284600964A
:104E9000FFF7DBFE43462A46214628460096FFF7E9
:104EA000EDFE3B462A4621462046FFF7A4FF434637
:104EB0002246214628460096FFF7C7FE4346009645
:104EC0002A4621462046FFF7C0FE2368DB074AD565
:104ED0003346424621462046FFF777FD314682465B
:104EE0002046FFF78CFD06F18043013B54F8232058
:104EF00042EACA7244F823203A4621462846FFF780
:104F00008AFF43460AAA294628460096FFF7B6FEBE
:104F100043460AAA294628460096FFF7AFFE0AA98B
:104F2000084643462A460096FFF7A8FE3B460AAAD3
:104F300021462046FFF75FFF02AA4346104621465E
:104F40000096FFF79BFE324629462046FFF72FFECC
:104F500049462846FFF72BFE02A94846FFF727FEE1
:104F600012B0BDE8F08731462046FFF748FDC3E7A1
:104F70002DE9F04115468AB004460E461C22002158
:104F800003A800F047FD2F1D95F9008003232A4652
:104F9000314620460293FFF73EFF3B4602AA2146D8
:104FA0002046CDF80080FFF769FE2B4632462146A9
:104FB0002046FFF720FFCDF800803B4605F1840234
:104FC00021462046FFF741FE0AB0BDE8F081F0B56A
:104FD0000F46A1B006461946384615461C46FFF74F
:104FE000AEFD28B1304621B0BDE8F040FFF79CBDD2
:104FF000224639466846FFF7DAFD294608A8FFF73A
:10500000D6FD10A82146FFF78FFD012318A81093A5
:10501000FFF78AFD224608A96846FFF7D4FD30B99C
:10502000224610A93046FFF7C2FD21B0F0BD009B1B
:10503000DA0709D421466846FFF7E1FC22462946F3
:1050400010A8FFF7E9FCE5E7089BDB0707D421463A
:1050500008A8FFF7D4FC2246294618A8F1E7002843
:1050600023461CDD08AA69466846FFF7D3FD2146A2
:105070006846FFF7C4FC224618A910A8FFF7A3FD55
:10508000002805DA10A923462A460846FFF79DFCAA
:1050900010A9234618AA0846FFF7BCFDCEE76A46CA
:1050A00008A8FFF7B7FD214608A8FFF7A8FC22468D
:1050B00010A918A8FFF787FD002805DA18A92346CC
:1050C0002A460846FFF781FC18A9234610AA08467D
:1050D000FFF7A0FDBFE7F0B5154689B01C460746AF
:1050E0000E461A4629466846FFF795FE23466A464D
:1050F00039463846FFF77FFE23462A46694668460A
:10510000FFF779FE23466A4631463046FFF773FEC5
:1051100009B0F0BD2DE9F0478AB01446DDF848A08B
:1051200055461F4615F9046B0096804689462B4666
:105130000246214602A8FFF7A1FD02A952460846F1
:10514000FFF769FE534602AA41464046FFF753FE69
:10515000534602AA21462046FFF74DFE2B464A46FB
:10516000394638460096FFF789FD5246394602A86F
:10517000FFF751FE02A92B46424608460096FFF76C
:105180007DFD02A92B46224608460096FFF776FDD4
:105190002B464246214620460096FFF76FFD5346B8
:1051A000224649464846FFF726FE2B4602AA4146BC
:1051B00020460096FFF762FD5346224639463846A0
:1051C000FFF719FE2B464A46394638460096FFF748
:1051D00055FD324602A92046FFF7E9FC0AB0BDE8BA
:1051E000F087F8B50E46D11C48BF911D41F38701E9
:1051F0001446FFF799FC0025671E6AB2A24205F12A
:10520000010500DBF8BDBB1A23F00301B25C03F01B
:105210000303DB009A40435813434350EDE72DE965
:10522000F0471F46B3F9023013F11F0448BF03F1E2
:105230003E046511DC1D48BF03F10E04E4109442E6
:105240004FFA85F928BF1446064688464946FFF7B7
:105250006BFC224641463046FFF7C3FFB7F90220F8
:10526000B2EBC40F4FEAC40320D29B1A06EB8504AD
:105270000021C3F12005A6420FD324374A46314608
:105280003846FFF7A0FC012810D04B463A4631467D
:105290003046BDE8F047FFF7BDBC54F8040D20FAD6
:1052A00003F20A43226000FA05F1E4E7BDE8F08763
:1052B0002DE9F04FFDB01F46869D0792B5F90230EB
:1052C00095F90040049113F11F0648BF03F13E0613
:1052D00046F3471606F1FF3B7CAA02EB8B02002344
:1052E0000DF1900842F8C03C42F8A03C014695F907
:1052F000012048F82B3081466CA8FFF772FFA3000D
:1053000095F9012006936CAB03EB8403184609EB77
:1053100002010393FFF765FF95F9012039464CA878
:10532000FFF75FFF95F9012054A8B918FFF759FF5F
:1053300021464CA8FFF703FC18B100207DB0BDE862
:10534000F08F214654A8FFF7FAFB02900028F4D111
:1053500005F1240A32464CA95046FFF734FC0128D7
:10536000EBD1324654A95046FFF72DFC0128059099
:10537000E3D10CAF3346524654A91CA8FFF727FED1
:10538000029B47F82B303846079A04992B46FFF7C3
:1053900046FF3946384653461CAA0096FFF71BFDC8
:1053A0000DF5B87953461CAA4CA914A80096FFF72E
:1053B00012FD484622466CA9FFF7F9FBA30009EB52
:1053C000030B584603992246FFF7F1FB05F144030E
:1053D0001946224634A80393FFF7E9FB039BA1007B
:1053E000591822463CA8FFF7E2FB2B1D494634AA78
:1053F0001CA800940493FFF741FC5B464A463CA975
:1054000034A80095FFF786FE1CA9084623462A1DEE
:10541000FFF7DDFD1CAA594648462B46FFF75BFE09
:10542000029B0893039B099331466CAB3846CDE948
:105430000A39FFF79CFB3146814614A8FFF797FB1A
:105440008145B8BF81461FFA89F909F1FF3109B2D8
:1054500038460291FFF782FB0299074614A8FFF72E
:105460007DFB003818BF0120003F18BF012747EA25
:1054700040070DF1200B22465BF827704046394665
:10548000FFF795FBA300F91822462CA8FFF78FFB26
:1054900021461CA8FFF748FB059B1C93A9F10209B4
:1054A0000FFA89F9B9F1000F21DA1CA90846049A0C
:1054B0002346FFF78CFD2B461CAA2CA94046FFF77C
:1054C0000AFE324641465046FFF77DFB012805D0D3
:1054D0003346524641464046FFF79CFB22464CA9C4
:1054E0004046FFF785FBB0FA80F0400926E72B46DF
:1054F0001CAAD5F8A4702CA94046B84749460CA868
:10550000FFF72CFB4946074614A8FFF727FB003896
:1055100018BF0120003F18BF012747EA400708AB2A
:1055200053F8277027B32246394634A8FFF73FFBCC
:10553000069B2246F9183CA8FFF739FB2B461CAA0C
:105540003CA934A8FFF7C7FD049B009434AA414648
:1055500044A8FFF793FB2CAB42463CA934A8009526
:10556000FFF7D8FD1CA92B4644AA0846FFF743FCC9
:1055700009F1FF3994E7F8B50C4610B1F9B10AB951
:105580000120F8BD8D1800F128060027836E5A1CF3
:105590008266034414F8011B83F828103F2A0BD9B4
:1055A0003146FBF77BFFD0E9083213F5007342F177
:1055B0000002C0E908328766A542E7D1E0E7084665
:1055C000DFE7F8B50C460546002855D0002954D031
:1055D0008B6ED1E90821D800121841F10001581C46
:1055E0002344C4E9082138284FF08002A0664FF018
:1055F000000783F8282004F128060AD9C0F14002E8
:105600003946304400F03BF831462046FBF746FF70
:10561000A766A06E0021C0F13802304400F02FF8D8
:10562000236A1ABA636A62661A0A84F8633084F8D5
:1056300062201A0C1B0E84F86030314684F8612019
:105640002046FBF72BFF2B1D211F243551F8042F7B
:1056500003F8012C100E03F8040C100C03F8030CD3
:10566000100A03F8020C0433AB42EFD1204670223B
:10567000002100F004F80120F8BD0846FCE700F026
:10568000C9B9002070470FB407B504A951F8040B3D
:105690000191FCF783F803B05DF804EB04B07047A8
:1056A000038B13F0070305D10368002B0CBF002008
:1056B00003207047022B05D1408BB0FA80F04009DF
:1056C00080007047012B05D10368002B0CBF002020
:1056D000052070470020704710B50C4600B111B985
:1056E0006FF0150010BD081D00F093F80028F9D1E7
:1056F000A368032BF6D9F3E72DE9F0410D460746E1
:105700001946281D90461E4600F094F8044638B10C
:105710003346424629463846A446BDE8F041604734
:10572000BDE8F08110B4EFF31182202484F31288D5
:10573000BFF36F8F416110BC0121FCF75FBA38B530
:105740000C46054658B151B10B6843B14B6833B1B3
:105750001C22002100F05EF92C61002038BD6FF0A2
:105760001500FBE770B505460E46FFF7B5FF041EB2
:1057700014DBEFF31182202383F31288BFF36F8FC2
:105780006B8B2C8B4FF6FF718B4204F0070407D113
:1057900082F31188BFF36F8F6FF00A04204670BD4B
:1057A000022C0CD101336B8382F31188BFF36F8F0E
:1057B0000023224631462846FFF79EFFEEE7062CDF
:1057C00014D8DFE804F004131313041A04000023B0
:1057D00033606B683BB9C5E90066ACB90221284665
:1057E000FCF70CFADAE71E606E60F6E782F31188C8
:1057F000BFF36F8F6FF00404D0E782F31188BFF31B
:105800006F8F6FF08504C9E782F31188BFF36F8F44
:10581000C4E7034658B1426802F00302012A03D0EC
:10582000032A04D1026812B10020986070476FF01B
:10583000150070474268816002F00302032A4FF0AE
:10584000000203460CBF006810465A60704770475C
:105850000FB407B504A951F8040B0191FBF79EFFA3
:1058600003B05DF804EB04B070477047002930B412
:10587000044618460BDBA5680844A84207D8E06830
:105880006468214484682468A44630BC60476FF093
:10589000150030BC7047002930B4044618460BDBB5
:1058A000A5680844A84207D8E06864682144846871
:1058B0006468A44630BC60476FF0150030BC704788
:1058C0000029034610B410460ADB9C680844A04235
:1058D00006D8D8685B681944836810BC9B68184771
:1058E0006FF0150010BC704708B5C0688368DB68AE
:1058F0009847006808BD08B5C0688368DB689847AA
:10590000007908BD70B54C680368A34201D201203C
:1059100070BD8A682244934201D30020F8E7D1E9A0
:1059200003254E69B54203D36FF00B038B61F4E797
:105930001B1B42F835304368086902EBC002536014
:105940000B6901330B61E2E7012801D1EFF3058315
:1059500000F09ABB01460068FFF7F6BF08B5FCF7F8
:10596000CBFABDE8084000F000B8704700210120E4
:10597000FFF7EABF61B662B680F31188BFF36F8F9D
:105980007047EFF31180202383F31288BFF36F8FEA
:10599000704772B6002383F31188BFF36F8FBFF394
:1059A0004F8F20BF80F31188BFF36F8F62B67047AF
:1059B000202809D9B0F1004F08D80138B0FA80F09A
:1059C000C0F11F0040007047082070473E2070471C
:1059D000034600201A5C02B970470130FAE710B59F
:1059E0005AB10139841810F8012B11F8013FA04277
:1059F00001D09A42F7D0D01A10BD1046FCE710B57E
:105A0000431E0A44914200D110BD11F8014B03F826
:105A1000014FF7E7C9B202440346934200D17047F1
:105A200003F8011BF9E70369C9B20C2201FB023339
:105A3000186C00F00700704770B5C9B20369EFF346
:105A40001185202484F31288BFF36F8F0C2606FB88
:105A50000134246C14F0C00408D0A24206D085F3AF
:105A60001188BFF36F8F4FF0FF3070BD71430B444F
:105A700001221A6485F31188BFF36F8F43680B44CA
:105A80005B6898470020F0E78022FFF7D5BFF8B5A4
:105A9000069F0469C9B2EFF31186202585F31288A9
:105AA000BFF36F8F0C2569430C44256C05F0070C80
:105AB000BCF1010F0BD1276486F31188BFF36F8F00
:105AC000C4E90E2343685B5898470020F8BD05F0F1
:105AD000C005AF4286F31188BFF36F8F0CBF6FF024
